:1000000000800020BD010000092000000920000040
:10001000092000000920000009200000D51F000071
:10002000D51F0000D51F0000D51F000009200000CB
:1000300009200000D51F000009200000C51F000096
:10004000092000000920000009200000092000000C
:1000500009200000092000000920000009200000FC
:1000600009200000092000000920000009200000EC
:1000700009200000092000000920000009200000DC
:1000800009200000092000000920000009200000CC
:1000900009200000C912000009200000092000000A
:1000A00009200000092000000920000009200000AC
:1000B000092000000920000009200000092000009C
:1000C000092000000920000009200000092000008C
:1000D000092000000920000009200000092000007C
:1000E000092000000920000009200000092000006C
:1000F00009200000052A000009200000812E0000D0
:1001000009200000554000000920000009200000DF
:10011000092000000920000009200000092000003B
:10012000092000000920000009200000092000002B
:10013000092000000920000009200000092000001B
:10014000092000000920000009200000092000000B
:10015000753A00008D3A0000A53A0000BD3A000053
:1001600009200000F93000000920000009200000EB
:1001700009200000092000000920000009200000DB
:1001800009200000092000000920000009200000CB
:10019000092000000920000009200000D1200000F3
:1001A00021210000A921000065220000E9220000B1
:1001B000092000000920000009200000544B4CF2E7
:1001C000205210B51A804DF628121A8000BF00BFC9
:1001D00000F098FF4F4B4FF010621A604E4A9A6041
:1001E0004E4ADA604E4B1A6812F4807204D14D49BF
:1001F0000A604FF4A8521A604B4B1A7802F00802BA
:10020000D2B21AB11A7842F008021A70474B484825
:10021000484C2A221A700023474A02E01959995083
:10022000043399188142F9D3444B454A002101E037
:1002300043F8041B9342FBD34249434800231A5816
:100240005A500433B3F5DE7FF9D1404B404A802148
:1002500003F8011B9342FBD13A4A3E4B1A603E4BD6
:100260000A221A703D4B24221A70A02203F8012C96
:100270003B4A137803F00203DBB2002BF9D0384A73
:10028000137803F01003DBB2002BF9D1344A137852
:1002900003F00C03082BFAD1324B03221A704022D0
:1002A0005A702F4A137803F02003DBB2002BF9D0E9
:1002B0002B4A137803F04003DBB2002BF9D02A4B12
:1002C0002A4A1A6002225A60294B20221A70244AB4
:1002D000137803F00C030C2BFAD1264A264B1A6034
:1002E000264B45F6BF521A60072243F8042C62B62B
:1002F00002F078F90B4B1B68DC0702D5204802F0AE
:100300000BF804F0AFFE01F082FE03F090FCFEE774
:100310000E20054030800440823F04000100002B85
:1003200010D0034014D0034002D0074000E0074043
:10033000948FFF1F80B800006089FF1F948FFF1FFC
:100340009893FF1F0084FF1F0000000000E400E0FE
:100350005FE400E008ED00E0005006400140064088
:100360000640064004400640448004400000033339
:1003700000400640C01005000480044014E000E086
:10038000942E3258FFFFFFFFFFFFFFFFFFFFFFFF2D
:10039000FFFFFFFFFFFFFFFFFFFFFFFFFFFFFFFF6D
:1003A000FFFFFFFFFFFFFFFFFFFFFFFFFFFFFFFF5D
:1003B000FFFFFFFFFFFFFFFFFFFFFFFFFFFFFFFF4D
:1003C000FFFFFFFFFFFFFFFFFFFFFFFFFFFFFFFF3D
:1003D000FFFFFFFFFFFFFFFFFFFFFFFFFFFFFFFF2D
:1003E000FFFFFFFFFFFFFFFFFFFFFFFFFFFFFFFF1D
:1003F000FFFFFFFFFFFFFFFFFFFFFFFFFFFFFFFF0D
:10040000FFFFFFFFFFFFFFFFFFFFFFFFFEFFFFFFFD
:1004100008B548F69470074BC1F6FF701B1A062BFF
:1004200000D808BD40F20003C0F20003002BF8D052
:100430009847F6E7978FFF1F08B548F6947048F67F
:100440009473C1F6FF70C1F6FF731B1A9B1003EB88
:10045000D373591000D108BD40F20002C0F200026F
:10046000002AF8D09047F6E710B548F69474C1F624
:10047000FF74237873B9FFF7CBFF40F20003C0F29B
:1004800000032BB14BF68000C0F20000AFF30080F8
:100490000123237010BD00BF08B540F20003C0F275
:1004A00000034BB14BF6800048F69871C0F2000093
:1004B000C1F6FF71AFF3008048F69470C1F6FF708B
:1004C00003682BB140F20003C0F2000303B1984768
:1004D000BDE80840B0E700BF08B50368C9B21B68B3
:1004E000984708BD08B50368C9B21B68984708BD9E
:1004F00008B50368C9B21B68984708BD08B503680A
:10050000C9B21B68984708BD08B50368C9B21B6823
:10051000984708BD08B50368C9B21B68984708BD6D
:1005200008B50368C9B21B68984708BD08B50368D9
:10053000C9B21B68984708BD024B4FF400121A60FD
:10054000704700BF80E100E072B6044B4AF20262DD
:100550001A804BF280421A8062B670470C20054028
:1005600010B5044603F044FB204610BD02F028BB42
:1005700008B502F025FBBDE8084001F023BAFFFFF3
:10058000044B1868400000EB5100B0FBF1F002F0A2
:10059000A7BA00BFF48FFF1F480800F1377000F5BD
:1005A000D840B0FBF1F002F09BBAFFFF074B186890
:1005B000400010B500EB5100B0FBF1F0144602F022
:1005C0008FFA2046BDE8104002F0D0BAF48FFF1F2A
:1005D000480800F1377010B500F5D840B0FBF1F0D5
:1005E000144602F07DFA2046BDE8104002F0BEBA83
:1005F00002F0A8B808B502F0A5F8BDE8084001F07F
:10060000CDB9FFFF044B1868400000EB5100B0FB70
:10061000F1F002F027B800BFF48FFF1F480800F187
:10062000377000F5D840B0FBF1F002F01BB8FFFFC7
:10063000074B1868400010B500EB5100B0FBF1F01B
:10064000144602F00FF82046BDE8104002F050B802
:10065000F48FFF1F480800F1377010B500F5D8403F
:10066000B0FBF1F0144601F0FDFF2046BDE810405C
:1006700002F03EB8084608B502F0E8FA012008BDCD
:10068000084608B502F0E2FA012008BD38B5084670
:100690000D4601F0E3FC04462146284602F020FB0B
:1006A000204638BD10B508461446114602F018FB26
:1006B000204610BD02F07CBB02F0C6BB02F06CBB52
:1006C00002F094BB02F0AABB02F082BB084602F023
:1006D000A3BA084608B502F07BF8012008BD084619
:1006E00008B502F075F8012008BD38B508460D467A
:1006F00001F0B4FC04462146284602F0B3F8204637
:1007000038BD10B508461446114602F0ABF8204635
:1007100010BD02F00FB902F059B902F0FFB802F0B3
:1007200027B902F03DB902F015B9084602F036B813
:1007300038B5044608460D4601F090FC2368024691
:100740005B6820462946984738BD38B50446FFF710
:10075000EFFF0546204603F073FA281838BD10B5A0
:10076000C4B22046002101F013FE20460121BDE85D
:10077000104001F0E1BD10B5C4B22046012101F0E6
:1007800007FE20460021BDE8104001F0D5BD10B5A0
:10079000C4B20221204601F0FBFD204601F0ECFD31
:1007A000003018BF012010BD0A7902718A6882608A
:1007B0000A7B0273014A0260704700BF88AA0000EA
:1007C00010B50446FFF7F0FF014B2046236010BD33
:1007D00038AA000070B50C4D0C4E0D490446284651
:1007E00000F0B6FD30460021C4F3072200F0F3FC10
:1007F00030460121E2B200F0EEFC06492846BDE891
:10080000704000F0A5BD00BFE48FFF1FE58FFF1F04
:1008100000366E0180841E0038B5064C002120464B
:1008200000F0D6FC01210546204600F0D1FC00EB8B
:10083000052038BDE58FFF1F10B50446FFF7B4FF54
:10084000014B2046236010BDD8AA000010B5044615
:100850000D2001F0B9FD204601F0AEFE0D20002173
:10086000BDE8104001F068BD0CB42DE9F04FD3B0E5
:1008700006468A4612A800214FF4807205F01AF845
:100880001020FFF784FF28B91120FFF774FF0A201A
:1008900001F092FE5DAB4FF480715C9A019312A857
:1008A00006F0D8FE02F0D0FA12A801F0D7FB3F28DC
:1008B000054638DD02AC20460021402204F0FAFF54
:1008C0004FF03F0B12AB95FBFBFB0DF187094FF08F
:1008D00001081F463F223946204605F0C1FB21464C
:1008E0003046FFF725FF0A2001F066FE08F10108F7
:1008F00000214022204604F0DDFFD8454F4609F193
:100900003F09E7DD00214022204604F0D3FF3F23CA
:1009100095FBF3F23946204603FB125205F0A0FB8B
:100920003046214601E0304612A9FFF701FF044698
:100930000A2001F041FE02F02FFABAF1000F03D0B5
:1009400001208021FFF782FF1120FFF708FF2046DA
:1009500053B0BDE8F04F02B07047FFFFF0B5074657
:10096000ADF2146D17200E46012101F0E5FC642064
:1009700001F022FE01F0EEFF20B91720002101F066
:10098000DBFC24E0002404AB03EB042500214FF43E
:100990008072284604F08EFF01340D2138462A4625
:1009A0004FF4807303F08CF9062CECD1002431460F
:1009B000684604ADFFF740FF002105EB04236846BD
:1009C000054A0134FFF750FF062CF0D1D5E70DF5AD
:1009D000057D0DF5806DF0BDCAAB000000232DE94B
:1009E000F0431A46051F01F10108184617E055F8B3
:1009F000047F0132AC461646002405E05CF8049FF3
:100A0000B94508BF013401368E42F7D19C42C8BFB8
:100A10002346C2EB0804C8BF38469C4201DB8A4229
:100A2000E5DBBDE8F083FFFFF0B58DB000240121C8
:100A3000054617200194ADF8084001F07DFC4FF405
:100A4000FA7001F0B9FD3B4E3B4F2846142103F0EC
:100A500021F9284601A9012203F01EF9002848D0F7
:100A600001F0B4FF0A2001F0A7FD01E001F080FFD2
:100A700001F096FF5228F9D128464FF47A7103F01D
:100A800009F906230D21284601AA03F019F99DF85A
:100A90000430522B2AD19DF80500A0F13003092B18
:100AA00024D89DF806E0AEF13003092B1ED89DF83E
:100AB0000710A1F13003092B18D89DF80820303A0F
:100AC000D3B2092B12D864231EFB03FE09B24FF4E4
:100AD0007A7303FB00E0CB0003EB41014318A3F55D
:100AE0005043203B03A99B18635004E003ABE7503D
:100AF00001E003ABE6500434242CA6D117200021DA
:100B000001F01AFC092103A8FFF768FF41F28833BE
:100B10009842044606D0A3F5FA53B0F5FA7F08BF11
:100B20001C4600E0054C01F051FF01F0F7FE2046A5
:100B30000DB0F0BD78ECFFFF18FCFFFF30F8FFFFB1
:100B40001FB501466846FFF73BFE6846FFF76CFF9E
:100B50000446FFF73FFE204604B010BD38B51649E5
:100B6000164800F0F5FB0121162001F0E5FB0020FE
:100B700001F0A6F80A2001F0C7F8202001F0EEF8F5
:100B80000A2001F019FD0A2400250E2001F010F9B9
:100B9000013C0544F9D11620214601F0CDFB08495E
:100BA000064800F0D5FB0A2095FBF0F004F0A6F80B
:100BB000044904F0F7F838BD00366E01E48FFF1FDA
:100BC00080841E00E8E78F3B10B5C4B201212046A7
:100BD00001F0B2FBFA2001F0EFFC20460021BDE855
:100BE000104001F0A9BBFFFF10B5C4B04FF48072F4
:100BF0000446002104A804F05DFE04A8124905F093
:100C0000BDF804A8114905F0B9F804A8104905F089
:100C1000B5F804A80F4905F0B1F80F4904A805F08C
:100C2000ADF8322001F0C8FC21466846FFF704FE0B
:100C300068460021094A04ABFFF716FE322001F096
:100C4000BBFC44B010BD00BF70AB000098B000000A
:100C5000A3AB000009AF0000A6AB0000CAAB0000C8
:100C600030B5044685B0322001F0A6FC2146684626
:100C70003D4DFFF7E1FD01213C4A3D4B6846FFF742
:100C8000F3FD21466846FFF7D7FD2A460021394B80
:100C90006846FFF7E9FD21466846FFF7CDFD2A4685
:100CA0000021354B6846FFF7DFFD21466846FFF718
:100CB000C3FD2A460021314B6846FFF7D5FD21468A
:100CC0006846FFF7B9FD2A4600212D4B6846FFF71D
:100CD000CBFD21466846FFF7AFFD2A460021294B90
:100CE0006846FFF7C1FD21466846FFF7A5FD2A4685
:100CF0000021254B6846FFF7B7FD21466846FFF700
:100D00009BFD2A460021214B6846FFF7ADFD214699
:100D10006846FFF791FD2A4600211D4B6846FFF704
:100D2000A3FD21466846FFF787FD2A460021194B9F
:100D30006846FFF799FD21466846FFF77DFD0021D3
:100D40002A46154B6846FFF78FFD21466846FFF798
:100D500073FD684600212A46104BFFF785FD3220BF
:100D600001F02AFC05B030BDC8AB0000CAAB0000E2
:100D7000B4AB0000CEAB0000EAAB00000FAC00004B
:100D800043AC000066AC00008BAC0000B0AC0000CF
:100D9000E2AC000002AD000033AD000052AD000037
:100DA0001FB5264C2649274800F0D2FA20464FF4BA
:100DB0001641FFF7E5FB24484FF41651FFF722FCDC
:100DC0000320022101F0E4FA0220014601F0E0FADA
:100DD0001720012101F0DCFA1620012101F0D8FAD8
:100DE0001520012101F0D4FA0D20012101F0D0FAE3
:100DF0001720002101F0A0FA1520002101F09CFA33
:100E00000021162001F098FA1120FFF7B4FC0F4AD8
:100E10000F49104802F0F5FE01F0BEFF02F014F891
:100E200021466846FFF708FD6846FFF7DDFE4FF4F0
:100E3000FA70FF21FFF70AFD1FBD00BFC08FFF1F23
:100E400080841E00E48FFF1FB08FFF1FFF1AB700C2
:100E500049050000D08FFF1F30B58BB001F0B8FFFF
:100E6000002800F0318101F0C1FFC0B23F381728DF
:100E700000F22A81DFE810F021012801180030007B
:100E800053006B002801280188002801280128014F
:100E9000280128012801280128012801280195009E
:100EA000A700EA0028010501884906A8FFF7C4FC4D
:100EB00006A8FFF799FE02A88549FFF781FC06A85E
:100EC0008249FFF7B9FC02A806A9FFF747FD0120F8
:100ED0008021FFF7BBFCF7E0FF214FF4FA70FFF72A
:100EE000B5FC322001F068FBFF214FF4FA70FFF7E8
:100EF000ADFC322001F060FBFF214FF4FA70FFF7E8
:100F0000A5FC322001F058FB1520FFF75DFE4FF4E1
:100F1000FA7001F051FB6F4A6F4B1A60D4E06C49D4
:100F200002A8FFF74DFC02A8FFF70AFE0546FFF7EF
:100F300073FCA842044640F0C780644906A8FFF746
:100F40007BFC009406A80121644A4323B2E0FFF72A
:100F500063FC5F49054602A8FFF732FC02A8FFF7D1
:100F600063FD002803DBA84203DA2C1A02E00446E2
:100F700000E00024554906A8FFF75EFC009406A88F
:100F80000121564A442395E0FFF746FC4F490446A9
:100F900006A8FFF751FC009406A801214F4A4723F9
:100FA00088E04B4902A8FFF70BFC02A8FFF73CFDC5
:100FB0004649044606A8FFF73FFC009406A8012115
:100FC000464A522376E000230D2102938DF80C301F
:100FD0003E48052302AA02F073FE9DF80810A1F115
:100FE0003003092B27D89DF80930A3F13002092AD4
:100FF00021D89DF80A20A2F1300009281BD89DF8BD
:101000000B003038C4B2092C15D8642413FB04F348
:1010100012B24FF47A7404FB0133D10001EB4202A7
:101020009B18A3F55043203B1818FFF7D3FBFFF79D
:10103000F3FB044600E02A4C244906A8FFF7FCFB1A
:10104000009406A80121254A532333E0032001F030
:1010500093F90446022001F08FF944EA4000013878
:10106000022898BF1F4B194994BF1C564FF0FF34FC
:1010700006A8FFF7E1FB009406A80121174A5423B4
:1010800018E0FFF76BFD1149044606A8FFF7D4FBF3
:10109000204603F063FA0022134B03F0B3FA002258
:1010A000124B03F0FDF803F047FD0C4A00900121BC
:1010B00006A85623FFF7D8FB06E006A80349FFF76A
:1010C000BBFB06A8FFF7CCFD0BB030BDC08FFF1FE8
:1010D000B08FFF1F0400FA050CED00E0CCAE00005D
:1010E00060F0FFFFD6AE0000000059400000E03F76
:1010F00008B5034800F024FABDE80840FFF7ACBE8D
:10110000E48FFF1F0E4B40F6B8321A80002223F8FE
:10111000022CD12223F8062C0A4B1B7803F008037B
:10112000DBB263B1084A094B01321B7812F8011C8B
:101130001278120442EA01221A43054B1A607047E2
:101140000620054002D0074006C0074005C0074002
:101150000482FF1FF8B5154C154D204600F05AF8D3
:101160002046144C14492A46102703F06BFF002137
:101170003A46204604F09EFB104B4FF47A76A66068
:1011800023600F4C00213A46204604F093FB0D4BA0
:101190000D4823600D49A660002303702A46802372
:1011A0004373BDE8F84003F04DBF00BFE48FFF1F5D
:1011B0006089FF1FB08FFF1F3905000038AA0000AB
:1011C000C08FFF1FD8AA0000D08FFF1F610500004D
:1011D000084600F0C9BE0846114600F0D9BE00F02E
:1011E00087BE72B6BFF35F8FBFF34F8FBFF36F8FB2
:1011F0000120704780F31088BFF35F8FBFF34F8FDC
:10120000BFF36F8FBFF35F8FBFF34F8FBFF36F8F4E
:101210007047FFFF1E4B2A2210B51A701D4A136833
:1012200043F0806313601C4B196821F08041196002
:10123000116841F0007111601A68184922F00052DB
:101240001A60174B00221A7001230B7015490B60AE
:1012500015490446086800B90B60144B14491A601C
:101260005A600A60134A012111605A6842F008026C
:101270005A605A680A435A6000F0A0F90E4B0F4AB0
:1012800013600F4A13600F4A2046136010BD00BF61
:1012900000E0074004700440007004402800C84289
:1012A0002000C8424C008E420007904200000440DB
:1012B000080004408800804200366E01F48FFF1F52
:1012C000EC8FFF1FF88FFF1F38B51A4B4FF4001239
:1012D0001A60194B1C78012C28D172B600F06EF9F7
:1012E000054662B600F040FA144B1A6812F48032D8
:1012F00009D0134B1C604FF0854300221A60114B3C
:10130000196889B103E01968890202D50E4B1A6089
:101310000AE01A68D20202D500F0F0FB04E01B6874
:101320009B0301D500F040F9034B5D60074B1B6840
:10133000984738BD80E100E00082FF1FF08FFF1F5B
:10134000080080420007904288037A42E88FFF1F1E
:1013500038B56C4B1B688B420C4600F0D08000F017
:101360004BF9012809D1EFF31085FFF73AFFA8B137
:1013700000F090FB00F010FA10E000F03DF90628B4
:1013800011D1EFF31085FFF72CFF38B15E4B1B78BE
:10139000042B01D100F07EFB00F09CFA2846FFF7F9
:1013A00029FF00F023FB594B5649594A9C42594B9F
:1013B00012D95948086010601860EFF31084FFF7E5
:1013C00010FF20B1554A00231360554A1360204690
:1013D000FFF710FF504838BD5248844220D10C60BE
:1013E0001460514A1A6000F019FBEFF31084FFF704
:1013F000F8FE80B100F024FA00200146012240F2FC
:10140000CF7300F0B9FA002000F022FB434A00231A
:101410001360434A13602046FFF7ECFE414838BD95
:101420004248844220D10C6014603F4A1A6000F0A8
:10143000F5FAEFF31084FFF7D4FE80B100F080FAE4
:10144000032001460F2240F69F7300F095FA00201A
:1014500000F0FEFA314A00231360314A136020463F
:10146000FFF7C8FE314838BD314884421CD10C60BA
:1014700014601C6000F0D2FAEFF31084FFF7B1FEA5
:1014800068B100F05DFA0120024641F63F73014663
:1014900000F072FA214A00231360214A13602046AB
:1014A000FFF7A8FE224838BD2248844220D10C60B4
:1014B00014601C6000F0B2FAEFF31084FFF791FEA5
:1014C00088B100F03DFA00200146024643F67F63F2
:1014D00000F052FA114A1848184900231360104AC4
:1014E0001360FFF732F92046FFF784FE114838BD3C
:1014F00009480860106018604FF0FF3038BD0020C8
:1015000038BD00BFF48FFF1F03E00740FF356E01B9
:10151000EC8FFF1FF88FFF1F00366E018C90FF1FAE
:1015200018E000E080841E0040420F0000093D00EA
:1015300000127A000024F4009892FF1FD9AE000038
:10154000134B144970B505461C68FFF701FFEFF314
:101550001086FFF746FE08B100F0CEFA3046FFF7DE
:1015600049FE0D4B9C4200D10AE00C4B9C4200D13D
:1015700006E00B4B9C4200D102E00A4B9C4205D195
:1015800028462146BDE87040FFF7E2BE70BD00BFAF
:10159000F48FFF1F80841E0000093D0000127A00B6
:1015A0000024F40000366E01024A00231370024A40
:1015B0001360704701300740CC06904270B50A496D
:1015C0000A4C0B4A25780E781078FF23237000040C
:1015D0000B701370074A012340EA0620137028435A
:1015E00082F8203070BD00BF06C0074005C007402C
:1015F00007C007401C01F842594B1A7812F00C0F33
:101600000BD11A7802F01002D2B232B11B7803F07B
:101610002003DBB2002B00F09480514B1A78C2F308
:101620008102032A0BD11A7802F01002D2B232B929
:101630001B7803F02003DBB2002B40F08480484B82
:101640001A78C2F38102022A10D11A7802F010022D
:10165000D2B25AB91B7803F02003DBB233B1414B4D
:101660001B7803F00203DBB2002B6ED03C4B1A78E0
:10167000C2F38102022A10D11A7802F01002D2B20B
:101680005AB91B7803F02003DBB233B9354B1B7812
:1016900003F00203DBB2002B59D0314B1A78C2F3AE
:1016A0008102022A0BD11B7803F01003DBB233B99D
:1016B0002C4B1B7803F00203DBB2002B49D1284BE3
:1016C0001878C0F38100012810D11A7802F01002B6
:1016D000D2B25AB11B7803F02003DBB233B9214BED
:1016E0001B7803F00203DBB2002B37D11C4B1A78B6
:1016F000C2F38102012A10D11A7802F01002D2B28C
:101700005AB11B7803F02003DBB233B9154B1B78B9
:1017100003F00203DBB2002B1DD0114B1878C0F38D
:101720008100002819D11A7802F01002D2B2AAB9A9
:10173000187800F02000C0B200280CBF0420002060
:101740007047032070470820704707207047052026
:10175000704706207047022070470020704700BF86
:10176000064006400140064008B5FFF745FF072840
:101770000BD1064B00221A70054B01221A70054A44
:10178000137803F00C030C2BFAD108BD004006407F
:101790001400C8420640064008B5FFF72DFF012897
:1017A0003ED1204B1A7802F0FD021A70A02203F8F5
:1017B000012C1D4A137803F00203DBB2002BF9D091
:1017C000194A137803F01003DBB2002BF9D1164A43
:1017D000137803F00C03082BFAD1144B03221A7070
:1017E00040225A70104A137803F02003DBB2002B1A
:1017F000F9D00D4A137803F04003DBB2002BF9D087
:101800000B4A0C4B1A600C4B20221A70064A1378B4
:1018100003F00C030C2BFAD1084B45F6BF521A60AB
:1018200008BD00BF01400640064006400440064097
:1018300000000333448004400040064014E000E010
:1018400008B5FFF7D9FE08283CD11F4B1A7842F0A3
:1018500080021A701D4A137803F00C03082BFAD18A
:10186000194B1A7802F0C7021A701A7842F0200257
:101870001A705A7902F0BF025A71144A137803F0B1
:101880002003DBB2002BF9D1114B1A7842F0010290
:101890001A70642203F8012C0C4A137803F0100329
:1018A000DBB2002BF9D0094A1378DB07FCD5074AD5
:1018B000137803F00C03042BFAD1054B1A7842F08D
:1018C00002021A7008BD00BF0040064006400640F4
:1018D0000140064008B5FFF78FFE062822D1124BC3
:1018E00003221A7040225A7013F8032C02F0FD02F2
:1018F00003F8032C0D4A137803F02003DBB2002B0E
:10190000F9D00A4A137803F04003DBB2002BF9D078
:10191000074A084B1A60084B00221A70074B45F61D
:10192000BF521A6008BD00BF044006400640064092
:1019300000000333448004400040064014E000E00F
:1019400008B5FFF759FE08280FD1084B1A7842F066
:1019500080021A70064A137803F00C03082BFAD1A0
:10196000044B1A7842F002021A7008BD004006408B
:101970000640064001400640000701F00F0140EA22
:10198000016102F00F0241EA02410248024A01608D
:10199000136070474480044014E000E0074A136875
:1019A000012B0AD1064BD97801F0F701D970D9780B
:1019B00001F0FB01D970002313607047A806904224
:1019C00000A00640074A1368012B0AD1064BD978BC
:1019D00001F0F701D970D97801F0FB01D97000232B
:1019E00013607047AC06904200B00640094B1A687D
:1019F00072B901221A60084B1A7802F07F021A703D
:101A00006C3B1A7842F001021A701A78D007FCD5A4
:101A1000704700BFC8069042002107400A4B1B6870
:101A2000012B0FD1094B1A7842F080021A706C3BDF
:101A30001A7802F0FE021A701A7812F00102FBD135
:101A4000014B1A60704700BFC80690420021074052
:101A50000D4B1B7803F07F03042B13D00B4B08B105
:101A6000C02200E040221A701B78094A137803F064
:101A70000403DBB2002BF9D1034A137803F07F0390
:101A8000042BFAD1704700BF03E0074001E0074094
:101A900002D00740094B1B7803F07F03042B0BD1C6
:101AA000074B1A7802F09F021A70064A137803F067
:101AB0000403DBB2002BF9D0704700BF03E00740FE
:101AC00001E0074002D00740094B1A6822F00202E9
:101AD0001A60084A116821F004011160BFF34F8FAA
:101AE00030BFBFF36F8F1A6842F002021A6070476E
:101AF00010E000E010ED00E0FFF7E6BF064B1A68CB
:101B000042F480421A601A6842F400421A601A686D
:101B100022F080021A60704700500440F0B530484F
:101B2000304903681B06FCD40B6813F08002F8D11F
:101B300072B62D4B1978002950D02C4908684F688F
:101B40008E68CD680C6938181431801909684019FD
:101B500000194018C0F34E00254940F400400860C9
:101B6000C86A0F6B4E6B8D6BCC6B38184031801987
:101B70000968401900194018C0F34E001D4940F48F
:101B80000040086001F10811143151F8140C51F8AB
:101B9000107C51F80C6C51F8085C51F8044C096841
:101BA00038188019401900194018C0F34E00124926
:101BB00040F400400860C86A0F6B4E6B8D6BCC6BB5
:101BC0003818403180190968401900194018C0F3CD
:101BD0004E000A4940F4004008601A7062B6F0BD39
:101BE00024B0034024B00B40FD8FFF1F38B00340EA
:101BF0002CB0034030B003402CB00B4030B00B4051
:101C0000224B60221A70E1225A70214B214A197826
:101C1000214B082901D1002102E00A2907D13821EE
:101C2000116013221A601D4B19605A600BE00C29D9
:101C30001A4901D1342000E03C20106012221A60C1
:101C4000174B08601A60174B17491B78174A03B1E6
:101C500001230B601360164B164A1978164B0129A5
:101C600001D880210CE0042901D8842108E008294A
:101C700001D8852104E0102901D8862100E08721C0
:101C8000116019600D4B01221A7070470040074027
:101C90006489FF1F08B003400CB0034008B00B403C
:101CA0000CB00B400090FF1F20B0034020B00B4051
:101CB0006589FF1F24B0034024B00B40FD8FFF1F38
:101CC0000E4B1A7860B1BAB9012119700C4B1B7810
:101CD00023B10C4B1A6003F500231A60FFF790BF85
:101CE00052B11870064B1B78002BF7D0054B1860CB
:101CF00003F500231860F1E7704700BF0090FF1F55
:101D0000FD8FFF1F24B003400C2803D91023102897
:101D100007D809E00A2806D8082894BF08230A2310
:101D200002E0184600E00C23084AD9B2081A1070E5
:101D3000074A1078834208D0064B11701B7813B104
:101D4000054B00221A60FFF75BBF7047FC8FFF1F37
:101D50006489FF1FFD8FFF1F24B0034010B5114B96
:101D60001B7804460BB1FFF7D9FE012C0E4A01D8AF
:101D7000002302E0042C02D8042313600EE0082C98
:101D800003D805231360082308E0102C03D806238A
:101D90001360102302E0072313602023034A13700B
:101DA00010BD00BFFD8FFF1F24B003406589FF1FDA
:101DB0000D282DE9F0410FD9172801D80E380AE077
:101DC000A0F11A03052B01D8093804E0A0F1220381
:101DD000062B4DD81838C0B2274B1C5C274B1B78FC
:101DE0000BB1FFF79BFE72B6200614D4244D254E8E
:101DF00001272C60377062B672B62B68190603D5BE
:101E0000214B18681F4B23E03378002BF1D062B6CA
:101E100001F096FFF0E704F040071C4D1C4EFFB2A6
:101E200004F03F044FF001081A4B1A6817B122F072
:101E3000100201E042F010021A602C6086F8008067
:101E400062B672B62B681A060BD5134B1868104B86
:101E500000221A7062B6114B1B7840FA03F0BDE8FD
:101E6000F0813378002BDFD062B601F069FFE8E73C
:101E70000020BDE8F08100BF19B40000FD8FFF1FF6
:101E800000B00340FF8FFF1F10B0034000B00B40B5
:101E9000FE8FFF1F0CB00B4010B00B40FC8FFF1FDC
:101EA0000B4B1A6842F480521A600A4B1A780A4B9C
:101EB0000AB1802200E0C0221A7040F6FF739842F7
:101EC000A8BF1846054B20EAE0701880704700BF95
:101ED0002C8004400090FF1F21C00C4000C00C402B
:101EE000024A1378DB07FCD5704700BF01000240AF
:101EF00030B5194B85B06C4603F110051868596868
:101F0000224603C20833AB421446F7D1134B1B7869
:101F100003F00203DBB2BBB1114B80221A703322F3
:101F20001A710322DA7072B60E4C6B4643F001034D
:101F30002046984762B6237813F0700304D02370CC
:101F400008E0013B03D105E0044944F621630A7827
:101F5000D207F6D505B030BD30B400000100024014
:101F60000700024000000240B0F5006F10B50446C3
:101F700009D2064B1B78D90701D4FFF7B9FF04F14A
:101F8000A054207810BD002010BD00BF0100024009
:101F9000B0F5006F38B504460D460FD2084B1B78DC
:101FA000D90701D4FFF7A4FF04F1A0542378AB4272
:101FB00004D02570BDE83840FFF792BF38BD00BFA0
:101FC00001000240024B1A6801321A60704700BFDC
:101FD0008C90FF1F38B50B4C25462368580301D55C
:101FE00001F08AF82B68590501D500F00BFD2B682C
:101FF0001A0501D500F044FF2368DB04EDD502F09B
:1020000029F8EAE73480044008B5FFF7E3FF70479A
:10201000024A136818181060184670476889FF1F35
:10202000EFF313839BB9EFF3108098B9EFF30583B7
:1020300023B10F2B04D9084A985C01E04FF480705B
:10204000EFF311833BB1984228BF184670474FF019
:10205000FF30704718467047F0E300E0002300E0CF
:102060000133C25C002AFBD11846704710B500232B
:10207000B0FBF2F402FB1400092801D8303000E074
:102080003730C85420460CB10133F1E7CA185470F8
:10209000224605E0885CCC5C8C54C8540132013B7C
:1020A0009A42F7DB084610BD084B4FF400021A6055
:1020B0004FF080721A604FF000721A604FF0806229
:1020C0001A604FF000621A60704700BF08E100E03C
:1020D000114B10B51C68E0041C6004D50F4BDA6886
:1020E0000AB1DB689847A10404D50C4B1A690AB100
:1020F0001B699847A20604D5084B1A6E0AB11B6EDD
:102100009847E30606D5054BD3F8842012B1D3F8DF
:102110008430984710BD00BFA09004400490FF1F7A
:102120001F4B10B51C68E0031C6004D51D4B1A68DA
:102130000AB11B689847A10304D51A4B5A680AB123
:102140005B689847E20704D5164B1A6C0AB11B6C02
:102150009847A30704D5134B5A6C0AB15B6C984798
:10216000200704D50F4B9A6C0AB19B6C9847610706
:1021700004D50C4BDA6C0AB1DB6C9847220304D50A
:10218000084B5A6E0AB15B6E9847630306D5054B40
:10219000D3F8802012B1D3F88030984710BD00BF2B
:1021A000A0A004400490FF1F2C4B10B51C68200712
:1021B0001C6004D52A4B5A6A0AB15B6A9847E1064B
:1021C00004D5274B9A6A0AB19B6A9847620604D5E0
:1021D000234BDA6A0AB1DB6A9847230604D5204B01
:1021E0001A6B0AB11B6B9847A00604D51C4B5A6B9F
:1021F0000AB15B6B9847E10704D5194BDA6B0AB15A
:10220000DB6B9847A20704D5154B9A6D0AB19B6DFD
:102210009847630704D5124BDA6D0AB1DB6D984716
:10222000A00504D50E4BDA6E0AB1DB6E9847E105C6
:1022300004D50B4B1A6F0AB11B6F9847620504D582
:10224000074B5A6F0AB15B6F9847230504D5044BBF
:102250009A6F0AB19B6F984710BD00BFA0B00440B1
:102260000490FF1F1E4B10B51C68E0071C6004D5CE
:102270001C4B9A680AB19B689847210604D5194BF4
:102280005A690AB15B699847E20604D5154B9A6909
:102290000AB19B699847630704D5124BDA690AB102
:1022A000DB699847200704D50E4B1A6A0AB11B6AEE
:1022B0009847A10704D50B4B9A6B0AB19B6B9847C3
:1022C000A20604D5074B1A6D0AB11B6D9847630629
:1022D00004D5044B5A6D0AB15B6D984710BD00BF21
:1022E000A0C004400490FF1F094B10B51C68A20752
:1022F0001C6004D5074B9A6E0AB19B6E9847E307A2
:1023000004D5044BDA6F0AB1DB6F984710BD00BFEC
:10231000A0D004400490FF1F044B054900221A601E
:102320000A60044A106010221A60704714D00340FB
:1023300004D0034000D00340212810B518D80D4A1E
:1023400052F8303093F880423CB1012211B183F849
:10235000802010BD83F8002110BD02EBC00043684F
:102360001A6811B142F0030201E022F002021A6081
:1023700010BD00BF40B40000212805D8034B53F81E
:10238000303093F8000270470020704740B40000DE
:10239000212816D80B4A02EBC00301295B6852F8CA
:1023A000302004D182F880124FF4A27208E000209D
:1023B00082F8800211B94FF4807201E040F20312FA
:1023C0001A60704740B40000282838B50A46044611
:1023D0004E4B0FD11B780B2B03D8C3F10C039A4043
:1023E00003E00C2B01D00C3B1A411046BDE83840ED
:1023F000FFF756BD19780125002A05FA01F301DC23
:10240000002102E09A4205D32946FFF795FF2046B6
:10241000294676E0C31E012B01D83D4B06E0192862
:1024200001D0202801D13B4B00E03B4B1B6801331E
:10243000534323FA01F3E11E1D2959D8DFE801F0C7
:102440000F151B215858272D585858585858585868
:102450005833393F4558515858585858584B2F4AB7
:1024600013604FF451722E4B40E02E4A13604FF42C
:1024700051722D4B3AE02D4A136040F244422C4BEE
:1024800034E02C4A136040F244422B4B2EE02B4A9E
:10249000136040F244422A4B28E02A4A136040F27B
:1024A0004442294B22E0294A136040F24442284B1F
:1024B0001CE0284A136040F24442274B16E0274AAA
:1024C000136040F24442264B10E0264A136040F26B
:1024D0004442254B0AE0254A13604FF45172244BC5
:1024E00004E0244A1360244B4FF451721A6038BD43
:1024F0007F2A2046D4BF00210121FFF71DFF20467F
:102500000121BDE83840FFF743BF00BF6C89FF1FC2
:102510000890034008800B4008800340109003405F
:1025200030900440189003403490044048800340A9
:102530001CC004403080034010C004402080034091
:102540000CB004402880034010B0044038800340A1
:1025500014C004404080034018C004401080034071
:1025600004B004401880034008B0044010800B40C1
:1025700048A0044018800B404CA0044072B60B4B9E
:102580000B491A680B4B1B68096862B6490102D5F2
:10259000322A88BF0133C2F5BB423F321821B2FB59
:1025A000F1F24FF47A7000FB0320704718E000E06E
:1025B00004ED00E08C90FF1F70B50446FFF7DEFFCE
:1025C00005466CB140F2E736FFF7D8FF401BB0423A
:1025D00003D9013C04D005F57A7501F0B1FBF3E7AE
:1025E00070BDFFFF10B5FFF75FFD164B164A174C85
:1025F00000204BF6FF711860596028231360936028
:1026000013619361136293621363936308222260E0
:102610000F4C20606160A360236144F8042C0D4CD2
:1026200020600D4801600D490B608B600C4B1A60F7
:10263000FFF7E6FA0420FFF7BFFFBDE8104001F006
:1026400077B800BF048003400C8003400080034043
:102650000490034004800B4008800B400C800B402A
:1026600000800B40194B1A6842F480621A60184AC5
:1026700000231370174A1370174A1370174A137008
:10268000174A1370174B40F213321A604FF451720D
:102690005A60154BC0F344321A70C0F347125A7097
:1026A0000221042200F01F0098729A70D9745A75A2
:1026B00088221A743C22DA700C4B40226FF44A7163
:1026C0001A705B184FF400521A607047348004404F
:1026D0001291FF1F9190FF1F1891FF1F1391FF1F71
:1026E0009090FF1F40A0044000A006402DE400E0B1
:1026F000134A937800F0030103F0EC030B43410706
:1027000048BF43F01003937000F00F03042B0C49F3
:1027100003D18B7943F040038B715379C20603F0E8
:10272000EF03074A48BF43F01003537193798006C3
:1027300003F0EF0348BF43F010039371704700BFED
:1027400000A006400E4B1B68580510B503D410BD01
:1027500001F0F6FA00E00B4C2378002BF8D10A4A7E
:102760004FF400511160094A0949D37040F2031235
:102770000A604A60074A1370074A137010BD00BF11
:10278000348004409090FF1F84E100E000A00640E8
:1027900040A004401291FF1F9190FF1F38B5094BD4
:1027A00004461D78002DFCD120460121FFF7F0FDE5
:1027B00020462946FFF7C0FD034B53F83420034B56
:1027C0001A6038BD9090FF1F40B400001491FF1FA5
:1027D0001D4B1B685A052DE9F041074631D51B4BAF
:1027E0001B680BB101221A70194B1A4D1C781A4E36
:1027F000DFF8688001343F2C88BF002414E0FFF725
:102800000FFC40280CDC33791B060DD52B780133E7
:102810003F2B88BF002318F80320F2712B7003E0D0
:10282000FF2801DD01F08CFA2B78A342E7D00B4B97
:102830001F550B4B01221A70054B1C70064BBC2216
:10284000DA70BDE8F08100BF348004401491FF1FAE
:102850001891FF1F1391FF1F00A006409290FF1FC9
:102860009090FF1F2DE9F84F254B1B680646580531
:10287000894642D5234B1B680BB101221A70224DA9
:10288000B346AA4632E0214B1C782F7801343F2C06
:1028900088BF0024A74209D01BF8012B1C4B1A55F6
:1028A0001C4B01221A70194B1C701FE01A4BBC22E2
:1028B000DA709846FFF7B4FB40280FDC98F8043034
:1028C00019060FD52B78124A01333F2B88BF0023FE
:1028D000D25C88F807208AF8003003E0FF2801DD89
:1028E00001F02EFA2B78BB42E4D0D5E706EB0903C2
:1028F0009B45C8D3084BBC22DA70BDE8F88F00BFF7
:10290000348004401491FF1F1391FF1F1891FF1F83
:102910009290FF1F9090FF1F00A0064010B5044C3E
:1029200001E001F00DFA2378002BFAD110BD00BFB1
:102930009090FF1F054B064A1B781078834201D305
:102940003F3000E00138C01A704700BF1891FF1FE8
:102950001391FF1F044B1878044B1B78984238BF23
:102960004030C01A704700BF1291FF1F9190FF1FA7
:10297000084B094A19781378994207D001333F2B45
:1029800088BF00230549C85C137070474FF0FF30C3
:10299000704700BF1291FF1F9190FF1FD290FF1F41
:1029A000074B1A78074B1B789A4206D001333F2B0E
:1029B00088BF0023044AD05C70474FF0FF30704757
:1029C0001291FF1F9190FF1FD290FF1F094B1B68B0
:1029D0005B050ED5084BDA7802F0CB02DA704022A4
:1029E0005A74DA7842F03402DA70044B1A78044BE5
:1029F0001A7070473480044000A006409190FF1F79
:102A00001291FF1F70B52D4B1A7912F0300F1DD0A7
:102A100072B6997D21B9DA7940225A7462B615E00E
:102A200062B6274A27481278274D00781C46531C67
:102A30003F2B88BF0023E67983421CBFEE541A4621
:102A4000013911F0FF01F2D11D4B1A701B4AD378E6
:102A500019465BB2002B1BDA1379180618D51B4BED
:102A60001B4C1D781B4B1B78AB4209D001333F2B0D
:102A700088BF00231079E05CD071107D0728F3D95E
:102A8000144A13700D4B1A79120601D57C22DA70A4
:102A900001F04003DBB27BB1084B1A7902F040022F
:102AA000D2B2194642B10C4B00221A700B4B1B6874
:102AB00003B11A703C23CB7070BD00BF00A006406C
:102AC0001291FF1F9190FF1FD290FF1F1891FF1FBF
:102AD0009290FF1F1391FF1F9090FF1F1491FF1FF3
:102AE000184B1A6842F400621A60174A00231370E8
:102AF000164A1370164A1370164A1370164A13704A
:102B0000164B40F213321A604FF451725A60144B54
:102B1000C0F344321A70C0F347125A7000F01F001D
:102B20000422022198729A70D9745A7588221A74F4
:102B30003C22DA700B4B40221A700B4B4FF40042D0
:102B40001A607047348004408391FF1F1A91FF1F61
:102B50008C91FF1F8491FF1F1991FF1F0CB004403F
:102B600000B006402FE400E004E100E0134A93784F
:102B700000F0030103F0EC030B43410748BF43F0AF
:102B80001003937000F00F03042B0C4903D18B79D1
:102B900043F040038B715379C20603F0EF03074AF9
:102BA00048BF43F0100353719379810603F0EF039C
:102BB00048BF43F010039371704700BF00B0064058
:102BC0000E4B1B68180510B503D410BD01F0B8F802
:102BD00000E00B4C2378002BF8D10A4A4FF4004157
:102BE0001160094A0949D37040F203120A604A6031
:102BF000074A1370074A137010BD00BF34800440A9
:102C00001991FF1F84E100E000B006400CB00440C1
:102C10008391FF1F1A91FF1F38B5094B04461D7899
:102C2000002DFCD120460121FFF7B2FB20462946AA
:102C3000FFF782FB034B53F83420034B1A6038BD77
:102C40001991FF1F40B400008891FF1F1D4B1B68A6
:102C50001A052DE9F041074631D51B4B1B680BB116
:102C600001221A70194B1A4D1C781A4EDFF8688031
:102C70000134272C88BF002414E0FFF7D1F9402845
:102C80000CDC33791B060DD52B780133272B88BF3D
:102C9000002318F80320F2712B7003E0FF2801DDF8
:102CA00001F04EF82B78A342E7D00B4B1F550B4B8E
:102CB00001221A70054B1C70064BBC22DA70BDE86D
:102CC000F08100BF348004408891FF1F8C91FF1F6A
:102CD0008491FF1F00B006401B91FF1F1991FF1F39
:102CE0002DE9F84F254B1B6806461805894642D545
:102CF000234B1B680BB101221A70224DB346AA4622
:102D000032E0214B1C782F780134272C88BF002417
:102D1000A74209D01BF8012B1C4B1A551C4B012252
:102D20001A70194B1C701FE01A4BBC22DA709846BF
:102D3000FFF776F940280FDC98F8043019060FD514
:102D40002B78124A0133272B88BF0023D25C88F8E6
:102D500007208AF8003003E0FF2801DD00F0F0FFD3
:102D60002B78BB42E4D0D5E706EB09039B45C8D3DB
:102D7000084BBC22DA70BDE8F88F00BF34800440F5
:102D80008891FF1F8491FF1F8C91FF1F1B91FF1FD4
:102D90001991FF1F00B0064010B5044C01E000F08F
:102DA000CFFF2378002BFAD110BD00BF1991FF1F70
:102DB000054B064A1B781078834201D3273000E088
:102DC0000138C01A704700BF8C91FF1F8491FF1F0C
:102DD000044B1878044B1B78984238BF4030C01A17
:102DE000704700BF8391FF1F1A91FF1F084B094ACC
:102DF00019781378994207D001333F2B88BF0023FD
:102E00000549C85C137070474FF0FF30704700BF32
:102E10008391FF1F1A91FF1F4391FF1F074B1A78E1
:102E2000074B1B789A4206D001333F2B88BF002303
:102E3000044AD05C70474FF0FF3070478391FF1F0A
:102E40001A91FF1F4391FF1F094B1B681B050ED5ED
:102E5000084BDA7802F0CB02DA7040225A74DA7842
:102E600042F03402DA70044B1A78044B1A7070473F
:102E70003480044000B006401A91FF1F8391FF1F69
:102E800070B52D4B1A7912F0300F1DD072B6997DA6
:102E900021B9DA7940225A7462B615E062B6274A3F
:102EA00027481278274D00781C46531C3F2B88BFBB
:102EB0000023E67983421CBFEE541A46013911F013
:102EC000FF01F2D11D4B1A701B4AD37819465BB231
:102ED000002B1BDA1379180618D51B4B1B4C1D78D9
:102EE0001B4B1B78AB4209D00133272B88BF002333
:102EF0001079E05CD071107D0728F3D9144A137063
:102F00000D4B1A79120601D57C22DA7001F04003CC
:102F1000DBB27BB1084B1A7902F04002D2B21946FB
:102F200042B10C4B00221A700B4B1B6803B11A7094
:102F30003C23CB7070BD00BF00B006408391FF1FE3
:102F40001A91FF1F4391FF1F8C91FF1F1B91FF1FC1
:102F50008491FF1F1991FF1F8891FF1FF0B50C4B43
:102F60000C4C1A7842F0020504EBC50682F001020F
:102F7000706009481A700678002E0CBF8827C82791
:102F800047EA014186F0010644F835100670F0BDAD
:102F9000F891FF1F0080FF1F7092FF1F431E032B3D
:102FA00010B510D872B6094A52F8230048B14168EA
:102FB00042F82310064A018832F81340611A22F8B9
:102FC000131062B610BD002010BD00BFE891FF1FB6
:102FD0008493FF1F013803280BD872B6064B53F8B1
:102FE0002030002001E05B680130002BFBD162B68D
:102FF00070470020704700BF3C92FF1F70B572B64B
:10300000184E194C01239A1912F8012C02F00802EB
:10301000D2B2E2B19900144A54F831502DB902EB02
:10302000431308305860114B09E041F0010154F896
:10303000315065B902EBC103083058600C4B42F8BF
:1030400031300C4B1A78013A1A7062B670BD0133F8
:10305000052BD8D162B6074B00221A70BDE870402C
:1030600000F0D2BB78B500000080FF1F8800400050
:10307000C80040006692FF1F431E032B30B532D8B4
:103080004001194A40F01000101872B6174CE25C6B
:10309000032A09D8DFE802F01602180508300222D8
:1030A00013E00830042210E01148124A50F823407F
:1030B00014B940F8231002E052F82300416042F8AE
:1030C00023100FE0032200E00522E25410F0080F65
:1030D00001F108030A8843600CBF8823C82343EA30
:1030E0000243036062B630BD0080FF1FA491FF1F42
:1030F0003C92FF1F4C92FF1F2DE9F74FA54EA64CA7
:10310000357805F00403DBB2ABB1A44B1B7883B177
:10311000A34A137823B1013BDBB2137003B900BE9D
:10312000A04A13782BB1013BDBB213700BB900F04E
:103130007FFC0423337005F00802D2B2002A00F0AD
:103140008082994B1B781D094FEA930940F0FE815C
:1031500004EBC903586854F83930C3F38303013BC7
:103160000C2B00F2F081DFE813F0A901A901EE01B8
:10317000EE01EE01EE01EE01EE01C501EE01EE0100
:10318000EE010D004368894902684B60884B89480D
:1031900044F83930884D0A6000230360012028700C
:1031A00092B240F28165AA422361A36117D8B2F5B9
:1031B000D06F80F02C81B2F5817F00F0DC8006D8E2
:1031C000802A00F0C280822A40F03D81C1E040F2B6
:1031D00002339A4200F00C81B2F5A06F16E042F281
:1031E0002105AA4200F0678108D8B2F5086F00F007
:1031F000A680B2F5106F40F026810AE042F221204D
:10320000824200F01C8142F221339A4240F01B813D
:103210001DE18A78614B604D1A702B6A180603D540
:10322000686A083800F0F0FA644A08359542F4D12B
:10323000DFF8B091DFF8B0B10025A846CA4655F8CE
:10324000090005E04368009300F0DEFA009B184691
:103250000028F7D15A4B4AF8050045F80B00E8580A
:1032600007E042680093019200F0CEFA019A009BB9
:1032700010460028F5D15851524BE850524B23F8D4
:103280001800524B18F80320023A032A08D8DFE846
:1032900002F002040204002200E0012203F80820E8
:1032A00008F101080435B8F1040FC8D1484BDFF824
:1032B0003C9100221A7001259846464B05EB090205
:1032C000EB1812F8012C9B001A7002F00802D2B21F
:1032D0003AB300F07BFAAB0038B104EB451208308A
:1032E00050603D4A44F8332006E044F8330098F833
:1032F0000030013388F8003000F068FAAB0043F08A
:10330000010338B104EBC30208305060284A44F886
:10331000332006E044F8330098F80030013388F891
:103320000030AA0042F00201013542F003020023FE
:10333000052D44F8313044F83230BED188E0174BC7
:10334000264D1B782B70034685E0244D2B706B7047
:1033500080E08A88042A00D975E0204D2B706B70BC
:103360001F4B9200D3181B7803F00203DBB2002B33
:1033700070D028706EE08A8802F07F03042B62DC34
:103380004B8803B15FE09100154A8A18117821F04B
:10339000020156E0802007400080FF1F6F92FF1F50
:1033A000F991FF1F7192FF1F902007405C92FF1F51
:1033B000C80040009091FF1F7092FF1F8080FF1F88
:1033C0003C92FF1F4C92FF1F8493FF1FA491FF1F8D
:1033D0006692FF1F30C80110880040006792FF1FEF
:1033E000C0200740E891FF1F9491FF1F78B50000AF
:1033F0008A8802F07F03042B25DC4B8803B122E08E
:103400009100A14A8A18117841F0020119E04A8816
:103410009E4B898853F8085CA3F10C009DB133F8EA
:103420000CCC944509D133F80ACC8C4505D1120A4D
:10343000032A0CBF2B7803890DE00C33EAE7897867
:10344000934A117004E0904B0F221A7033E000236E
:103450001D4600E002238F4AB2F806904B4538BF64
:103460009946B9F1400F34BFC8464FF0400828468E
:103470004146FFF773FDB9EB0809454403D1B8F1A4
:10348000400F07D017E0B9F1400F34BFC8464FF0E6
:10349000400800E0C84628464146FFF75FFDB9EB0B
:1034A0000809454402D1B8F1400F04D17A4B7B4A58
:1034B0001D60A2F800900122794B43E0754B1A88F9
:1034C00042F221039A4211D1764A0023C15C9954F9
:1034D0000133072BFAD1734B1B68862B02D1724B39
:1034E0000F221A7000200146FFF738FD6F4B44F899
:1034F000393028E0684BD3F80080B8F1000F18D0BD
:10350000DFF89891B9F800A0BAF1400F34BF5546E2
:10351000402540462946FFF721FDC5EB0A039BB233
:10352000A9F800300BB9402D01D108EB05035A4A28
:103530001360584B1A88B2F5A06F04D100225A705C
:103540009A785B4B1A700122554B6DE004EBC90869
:1035500003F00803D8F80420013DD9B2A2F1080015
:10356000EDB2002937D000F04FF95248524B50F8D5
:103570002510F1B14A6840F8252001F10802C8F889
:1035800004205A5D032A0BD8DFE802F00204060883
:10359000032204E0022202E0052200E004225A5540
:1035A00018F0080F0A880CBF8823C82343EA024397
:1035B00042E05A5D032A07D8DFE802F040400204E7
:1035C000002206E0012204E018F0080F0CBF0222DE
:1035D00003225A5532E054F839301B0C22F8083CCB
:1035E00023B322F8061C42F8041C344A344952F82A
:1035F000257017B942F8250002E051F825205060E7
:10360000304A41F8250032F815105B1822F81530C1
:1036100000F0DCF818B10830C8F8040006E02A4BC6
:1036200044F839001A7801321A7007E01F4B274A14
:1036300018F0080F08BF134644F8393008233370D8
:103640005EE5E90752D516492048214C02230B704C
:10365000204B1A70204B1860986020481A61D8607F
:103660009A615C60084B0D2018701D48FF230370A1
:1036700000F8083C02741B4A13701B4B9F221A70FF
:1036800001230B704BE000BFC020074088B500004D
:103690008092FF1F5C92FF1F9091FF1F6492FF1F9B
:1036A000942007408C93FF1FF991FF1FC800400032
:1036B000982007403C92FF1FA491FF1FE891FF1F35
:1036C0009491FF1F8493FF1F6692FF1F88004000A4
:1036D000A891FF1FF891FF1F0080FF1FFC91FF1FA3
:1036E000882007408C200740842007402B0605D502
:1036F0000C4B0D221A70802203F8402C05F00203B7
:10370000DBB22BB1084B1A781A70022203F8082C8E
:1037100005F01005EDB215B1044B10221A70BDE88A
:10372000FE8F00BFC0200740882007408020074050
:1037300008B500F0E5FC00231E491A465A50C81887
:103740000833882B4260F9D11B4B1A6842F480225F
:103750001A601A4B80221A701978184A0906FBD48D
:10376000144B1749C3F307200870C3F307401B0E1F
:1037700008750B76FF2301F81C3C01F8143C01F896
:103780008C3C137843F0400313700021012302F8AE
:10379000783C02F80C1C02F8883C0A4B70226FF44B
:1037A000507C1A7063444FF400721A60064B10226A
:1037B0001A7008BD0080FF1F348004400C210740B0
:1037C0009C20074049E400E00821074072B60C4AFB
:1037D0001168B1FA81F30B2B02D962B60020704751
:1037E0004FF0004020FA03F021EA0001116062B6B8
:1037F000044948225343C8180022CA504260704707
:103800007089FF1F0086FF1F0C4B4822C31AB3FBB1
:10381000F2F30B2B11D80A4A127822B1094A127816
:103820000AB1FFF7EBBB72B6074A4FF0004121FA2D
:1038300003F311681943116062B670470086FF1FD9
:103840006692FF1F6F92FF1F7089FF1F38B5114CE2
:1038500023684BB10F4D28684288811801320C7AD9
:1038600001888A4212D30CE00B4B1B7813B94FF03E
:10387000FF340CE00320FFF791FB20600028E9D122
:10388000F5E7FFF7C1FF00232B6000E042802046F0
:1038900038BD00BF7C92FF1F6F92FF1F10B50C4C0C
:1038A00023681BB10A4B1B686BB902E0094B1B78FC
:1038B00013B94FF0FF3010BD0320FFF76FFB2060FE
:1038C0000028EFD1F5E75A889B18187A10BD00BF81
:1038D0007C92FF1F6F92FF1F044B9888044B1B685C
:1038E0001BB11A885B88D31AC01870478493FF1FD6
:1038F0007C92FF1F2DE9F8432D4B2E4DDFF8C08041
:1039000001220C461A7006464BE02B682BBBDFF8F1
:10391000A09044F2A57798F8003013B9244A1370A8
:1039200014E00420FFF756FB072808D8012389F884
:103930000030FFF74BFF286078B989F80000013F9D
:103940001D4B01D01A782AB101221A704FF0FF30B6
:10395000BDE8F88300F0F4F9DDE72968164A4888E5
:1039600000231370C0F14002944238BF224600F198
:1039700008078018CF194880A41A02E0F05CF854B8
:1039800001339342FAD1F6184B883F2B06D94023D6
:103990000B800420FFF770FB00232B60074B0522F0
:1039A0001A70002CB1D1024B20461C70BDE8F88380
:1039B0007292FF1F7492FF1F7892FF1F7192FF1F78
:1039C0006F92FF1F07B502AB012103F8010D1846E6
:1039D000FFF790FF0EBDFFFFF8B5114B1B78EBB161
:1039E000104E114B3468114D01271F704CB1638884
:1039F00000272F70042023802146FFF73DFB37600E
:103A000009E0FFF7E3FE014620B104202C70FFF728
:103A100033FB00E02F70044B00221A70F8BD00BF8A
:103A20006F92FF1F7492FF1F7292FF1F7192FF1F10
:103A300038B50D4B1D78ADB90C4C216831B14B88B0
:103A400004200B80FFF718FB256038BDFFF7BEFE92
:103A5000014620B10420BDE83840FFF70DBB044B00
:103A600001221A7038BD00BF7292FF1F7492FF1FAF
:103A70007192FF1F08B5034B01221A60024B1B68AD
:103A8000984708BD0C7103408892FF1F08B5034B8F
:103A900001221A60024B5B68984708BD1C71034005
:103AA0008892FF1F08B5034B01221A60024B9B68E6
:103AB000984708BD2C7103408892FF1F08B5034B3F
:103AC00001221A60024BDB68984708BD3C71034035
:103AD0008892FF1F054B1A6842F400021A60044BDB
:103AE00000221A60034B01221A7070473C80044088
:103AF000007003408592FF1F054B01221A60054BA1
:103B00001A6822F400021A60034B00221A707047F0
:103B1000007003403C8004408592FF1FF0B544785C
:103B2000134D144F23015A194260134A9E188660A0
:103B300004F144060673066947F8246000249C508B
:103B4000595103219950037B427B03F1604303F5F4
:103B5000644301211A70037B5A11920002F1604202
:103B600002F5614203F01F0301FA03F31360F0BD95
:103B7000007103408892FF1F087103400C4B1B78B3
:103B800070B505460E460BB9FFF7A4FF094B00249C
:103B9000E15C41B928466C703146FFF7BFFF054B29
:103BA0000120185570BD0134042CF1D1002070BDE6
:103BB0008592FF1F8192FF1F037B0122591103F0A1
:103BC0001F0302FA03F3084A42F8213082680023F7
:103BD00013604178054A5354D15C21B90133042B59
:103BE000FAD1FFF789BF704780E100E08192FF1FA3
:103BF000037810B504460BB1FFF7DEFF00232370F6
:103C000010BD037870B504460D4616461BB1FFF78C
:103C1000D3FF00232370256120463146FFF7AEFF16
:103C200010B10123237000E02070207870BD08B52A
:103C3000FDF7B6F8FDF75CFA00F082F8FAE7FFFF4F
:103C400007B5054B1B88ADF80430036801A95B6814
:103C5000022298470EBD00BF50B5000073B50C4B53
:103C60001A680092009D04461E4623682046DB68C1
:103C7000984700280ADA00F063F83368A2680193D5
:103C8000019B5B1B9342F0D34FF0FF307CBD00BF24
:103C90008C90FF1F81607047F8B505460E461746A9
:103CA000002409E02846FFF7D9FF002802DA0123A3
:103CB0002B7303E030550134BC42F3D12046F8BDEC
:103CC0002DE9B847074689469046B3B103F1FF3A5C
:103CD00014460BE03846FFF7C1FF48450AD00028DC
:103CE00002DA01233B7305E004F8010BC8EB04057D
:103CF0005545EFD30023237000E01D462846BDE85C
:103D0000B88708461146FFF7F5BD0846FFF75ABECB
:103D1000FFF762BEFFF7C2BDFFF798BDFFF7DCBD3E
:103D20007047FFFF044B00221A711A73034A4FF4C5
:103D30007A7199601A6070479892FF1F60B5000011
:103D400008B50E4B1A78C2B901221A70FFF7C4FDEC
:103D500008B1FFF7E5FFFEF7FDFD08B100F008FA36
:103D6000FFF736F808B100F013FA00F02DF908B1AA
:103D700000F080FA014B00221A7008BDA892FF1FC4
:103D8000174B1A6842F480521A60164A00231370C7
:103D9000154A1370154A1370154A1370154A13709B
:103DA000154A40F2133111604FF451715160134ABA
:103DB000C0F344311170C0F3471100F01F0051707F
:103DC0009072937013742C23D3700D4B40226FF4B8
:103DD0004B711A705B184FF400321A60704700BFC5
:103DE000348004401393FF1FAA92FF1F1C93FF1FF0
:103DF0001493FF1FA992FF1F08C0044000C0064093
:103E000031E400E0134A937800F0030103F0EC037F
:103E10000B43410748BF43F01003937000F00F03BA
:103E2000042B0C4903D18B7943F040038B715379F8
:103E3000C20603F0EF03074A48BF43F01003537173
:103E40009379800603F0EF0348BF43F010039371AA
:103E5000704700BF00C006400E4B1B68D80410B569
:103E600003D410BDFFF76CFF00E00B4C2378002B50
:103E7000F8D10A4A4FF400311160094A0949D37058
:103E800040F203120A604A60074A1370074A13702F
:103E900010BD00BF34800440A992FF1F84E100E000
:103EA00000C0064008C004401393FF1FAA92FF1FE2
:103EB00038B5094B04461D78002DFCD12046012160
:103EC000FEF766FA20462946FEF736FA034B53F80A
:103ED0003420034B1A6038BDA992FF1F40B4000084
:103EE0001893FF1F1D4B1B68DA042DE9F0410746AC
:103EF00031D51B4B1B680BB101221A70194B1A4D9F
:103F00001C781A4EDFF868800134272C88BF002403
:103F100014E0FEF785F840280CDC33791B060DD53C
:103F20002B780133272B88BF002318F80320F27168
:103F30002B7003E0FF2801DDFFF702FF2B78A3427F
:103F4000E7D00B4B1F550B4B01221A70054B1C7011
:103F5000064BAC22DA70BDE8F08100BF348004402B
:103F60001893FF1F1C93FF1F1493FF1F00C00640F0
:103F7000AB92FF1FA992FF1F38B54518044603E016
:103F800014F8010BFFF7AEFFAC42F9D138BDFFFFCB
:103F900010B5044C01E0FFF7D3FE2378002BFAD1D3
:103FA00010BD00BFA992FF1F054B064A1B78107871
:103FB000834201D3273000E00138C01A704700BFA8
:103FC0001C93FF1F1493FF1F044B1878044B1B789E
:103FD000984238BF4030C01A704700BF1393FF1F8C
:103FE000AA92FF1F084B094A19781378994207D003
:103FF00001333F2B88BF00230549C85C137070470D
:104000004FF0FF30704700BF1393FF1FAA92FF1FAE
:10401000D392FF1F074B1A78074B1B789A4206D0A2
:1040200001333F2B88BF0023044AD05C70474FF018
:10403000FF3070471393FF1FAA92FF1FD392FF1FF9
:10404000024B1A78024B1A70704700BFAA92FF1FEA
:104050001393FF1F10B5214B1A7902F02002D2B240
:104060006AB11F4AD8791F491378097801333F2B69
:1040700088BF00238B4202D01B49C8541370174AD3
:10408000D37818465BB2002B13DA1379190610D5D2
:10409000164B17491C780B789C4202D16C23D370C5
:1040A00007E00133272B88BF0023124CE45CD47156
:1040B0000B7000F04003DBB27BB1084B1A7902F0C1
:1040C0004002D2B2194642B10B4B00221A700B4B80
:1040D0001B6803B11A702C23CB7010BD00C00640C2
:1040E0001393FF1FAA92FF1FD392FF1F1C93FF1F62
:1040F0001493FF1FAB92FF1FA992FF1F1893FF1F7E
:104100001FB572B6154B70221A70154A41211170F5
:104110000F2102F8011C80221A701A781206FCD5B1
:10412000104B186862B6104B984201D80A235843C6
:1041300001A90A22FDF79AFF0C48002301AA9A5C04
:104140002AB100EB430101330A2B4A80F6D1013337
:10415000064A5B00137005B000BD00BF00000240BE
:1041600007000240080002407F969800FC89FF1F6C
:104170007047FFFF044B00221A711A73034A4FF471
:104180007A7199601A6070472093FF1F88AA000017
:104190007047FFFF044B00221A711A73034A4FF451
:1041A0007A7199601A6070473093FF1F28AB000046
:1041B00008B50368C9B21B68984708BD08B503680D
:1041C000C9B21B68984708BD08B50368C9B21B6827
:1041D000984708BD08B50368C9B21B68984708BD71
:1041E000084608B5FFF77EFE012008BD084608B561
:1041F000FFF778FE012008BD38B508460D46FDF7EB
:104200002DFF044621462846FFF7B6FE204638BD5E
:1042100010B5084614461146FFF7AEFE204610BD05
:10422000FFF7C2BEFFF70CBFFFF7B2BEFFF7DABE63
:10423000FFF7F0BEFFF7C8BE0846FFF739BEFFF72D
:104240000BBE480800F1377000F5D840B0FBF1F024
:10425000FFF796BD480800F1377010B500F5D8405B
:10426000B0FBF1F01446FFF78BFD2046BDE810408F
:10427000FFF7C8BD7047FFFF044B00221A711A7385
:10428000034A4FF47A7199601A6070474093FF1F98
:10429000D8B5000081F0004102E000BF83F0004388
:1042A00030B54FEA41044FEA430594EA050F08BFD1
:1042B00090EA020F1FBF54EA000C55EA020C7FEA95
:1042C000645C7FEA655C00F0E2804FEA5454D4EB12
:1042D0005555B8BF6D420CDD2C4480EA020281EADC
:1042E000030382EA000083EA010180EA020281EA14
:1042F0000303362D88BF30BD11F0004F4FEA013166
:104300004FF4801C4CEA113102D0404261EB410174
:1043100013F0004F4FEA03334CEA133302D05242FA
:1043200063EB430394EA050F00F0A780A4F10104B6
:10433000D5F1200E0DDB02FA0EFC22FA05F28018F0
:1043400041F1000103FA0EF2801843FA05F35941D6
:104350000EE0A5F120050EF1200E012A03FA0EFC55
:1043600028BF4CF0020C43FA05F3C01851EBE3717F
:1043700001F0004507D54FF0000EDCF1000C7EEB9C
:1043800000006EEB0101B1F5801F1BD3B1F5001FDA
:104390000CD349085FEA30004FEA3C0C04F10104F9
:1043A0004FEA445212F5800F80F09A80BCF1004F22
:1043B00008BF5FEA500C50F1000041EB045141EAA4
:1043C000050130BD5FEA4C0C404141EB010111F4A5
:1043D000801FA4F10104E9D191F0000F04BF014650
:1043E0000020B1FA81F308BF2033A3F10B03B3F12E
:1043F00020020CDA0C3208DD02F1140CC2F10C02BE
:1044000001FA0CF021FA02F10CE002F11402D8BF1B
:10441000C2F1200C01FA02F120FA0CFCDCBF41EAE7
:104420000C019040E41AA2BF01EB0451294330BDB6
:104430006FEA04041F3C1CDA0C340EDC04F1140493
:10444000C4F1200220FA04F001FA02F340EA03006A
:1044500021FA04F345EA030130BDC4F10C04C4F1B0
:10446000200220FA02F001FA04F340EA0300294690
:1044700030BD21FA04F0294630BD94F0000F83F4DA
:10448000801306BF81F480110134013D4EE77FEABD
:10449000645C18BF7FEA655C29D094EA050F08BF09
:1044A00090EA020F05D054EA000C04BF19461046EA
:1044B00030BD91EA030F1EBF0021002030BD5FEA2E
:1044C000545C05D14000494128BF41F0004130BD56
:1044D00014F580043CBF01F5801130BD01F00045AA
:1044E00045F0FE4141F470014FF0000030BD7FEA1D
:1044F000645C1ABF194610467FEA655C1CBF0B4618
:10450000024650EA013406BF52EA033591EA030F2E
:1045100041F4002130BD00BF90F0000F04BF002126
:10452000704730B54FF4806404F132044FF0000559
:104530004FF0000150E700BF90F0000F04BF0021D2
:10454000704730B54FF4806404F1320410F0004538
:1045500048BF40424FF000013EE700BF42004FEA33
:10456000E2014FEA31014FEA02701FBF12F07F43B0
:1045700093F07F4F81F06051704792F0000F14BFAD
:1045800093F07F4F704730B54FF4607401F00045F1
:1045900021F0004120E700BF50EA010208BF704748
:1045A00030B54FF000050AE050EA010208BF70473D
:1045B00030B511F0004502D5404261EB41014FF4A6
:1045C000806404F132045FEA915C3FF4DCAE4FF0AA
:1045D00003025FEADC0C18BF03325FEADC0C18BF91
:1045E000033202EBDC02C2F1200300FA03FC20FAE2
:1045F00002F001FA03FE40EA0E0021FA02F114442F
:10460000C1E600BF70B54FF0FF0C4CF4E06C1CEA43
:1046100011541DBF1CEA135594EA0C0F95EA0C0FB8
:1046200000F0DEF82C4481EA030621EA4C5123EA2B
:104630004C5350EA013518BF52EA033541F480115A
:1046400043F4801338D0A0FB02CE4FF00005E1FB0D
:1046500002E506F00042E0FB03E54FF00006E1FB57
:1046600003569CF0000F18BF4EF0010EA4F1FF049A
:10467000B6F5007F64F5407404D25FEA4E0E6D41DA
:1046800046EB060642EAC62141EA55514FEAC520EB
:1046900040EA5E504FEACE2EB4F1FD0C88BFBCF567
:1046A000E06F1ED8BEF1004F08BF5FEA500E50F118
:1046B000000041EB045170BD06F0004646EA0101DE
:1046C00040EA020081EA0301B4EB5C04C2BFD4EB10
:1046D0000C0541EA045170BD41F480114FF0000E09
:1046E000013C00F3AB8014F1360FDEBF002001F077
:1046F000004170BDC4F10004203C35DA0C341BDCF1
:1047000004F11404C4F1200500FA05F320FA04F0C2
:1047100001FA05F240EA020001F0004221F00041F6
:1047200010EBD37021FA04F642EB06015EEA430E69
:1047300008BF20EAD37070BDC4F10C04C4F1200599
:1047400000FA04F320FA05F001FA04F240EA02004C
:1047500001F0004110EBD37041F100015EEA430E1D
:1047600008BF20EAD37070BDC4F1200500FA05F23D
:104770004EEA020E20FA04F301FA05F243EA0203BC
:1047800021FA04F001F0004121FA04F220EA0200CB
:1047900000EBD3705EEA430E08BF20EAD37070BD11
:1047A00094F0000F0FD101F00046400041EB0101F1
:1047B00011F4801F08BF013CF7D041EA060195F0D3
:1047C000000F18BF704703F00046520043EB03038D
:1047D00013F4801F08BF013DF7D043EA060370477A
:1047E00094EA0C0F0CEA135518BF95EA0C0F0CD085
:1047F00050EA410618BF52EA4306D1D181EA0301CB
:1048000001F000414FF0000070BD50EA410606BFC4
:104810001046194652EA430619D094EA0C0F02D109
:1048200050EA013613D195EA0C0F05D152EA03364E
:104830001CBF104619460AD181EA030101F000416C
:1048400041F0FE4141F470014FF0000070BD41F0B5
:10485000FE4141F4780170BD70B54FF0FF0C4CF48F
:10486000E06C1CEA11541DBF1CEA135594EA0C0FAE
:1048700095EA0C0F00F0A7F8A4EB050481EA030EFB
:1048800052EA03354FEA013100F088804FEA0333E2
:104890004FF0805545EA131343EA12634FEA0222B0
:1048A00045EA111545EA10654FEA00260EF0004171
:1048B0009D4208BF964244F1FD0404F5407402D2C3
:1048C0005B084FEA3202B61A65EB03055B084FEA54
:1048D00032024FF480104FF4002CB6EB020E75EB51
:1048E000030E22BFB61A754640EA0C005B084FEA79
:1048F0003202B6EB020E75EB030E22BFB61A7546F6
:1049000040EA5C005B084FEA3202B6EB020E75EB40
:10491000030E22BFB61A754640EA9C005B084FEAB8
:104920003202B6EB020E75EB030E22BFB61A7546C5
:1049300040EADC0055EA060E18D04FEA051545EAB4
:1049400016754FEA06164FEAC30343EA52734FEA5D
:10495000C2025FEA1C1CC0D111F4801F0BD141EAD6
:1049600000014FF000004FF0004CB6E711F4801F3B
:1049700004BF01430020B4F1FD0C88BFBCF5E06F1B
:104980003FF6AFAEB5EB030C04BFB6EB020C5FEA2B
:10499000500C50F1000041EB045170BD0EF0004E80
:1049A0004EEA113114EB5C04C2BFD4EB0C0541EAB2
:1049B000045170BD41F480114FF0000E013C90E6AF
:1049C00045EA060E8DE60CEA135594EA0C0F08BF73
:1049D00095EA0C0F3FF43BAF94EA0C0F0AD150EA72
:1049E00001347FF434AF95EA0C0F7FF425AF104605
:1049F00019462CE795EA0C0F06D152EA03353FF42D
:104A0000FDAE1046194622E750EA410618BF52EAA9
:104A100043067FF4C5AE50EA41047FF40DAF52EA7D
:104A200043057FF4EBAE12E74FF0FF3C06E000BF1A
:104A30004FF0010C02E000BF4FF0010C4DF804CD27
:104A40004FEA410C7FEA6C5C4FEA430C18BF7FEAE7
:104A50006C5C1BD001B050EA410C0CBF52EA430C15
:104A600091EA030F02BF90EA020F0020704710F195
:104A7000000F91EA030F58BF994208BF90422CBF24
:104A8000D8176FEAE37040F0010070474FEA410C1D
:104A90007FEA6C5C02D150EA013C07D14FEA430C3B
:104AA0007FEA6C5CD6D152EA033CD3D05DF8040BAC
:104AB000704700BF8446104662468C4619466346DE
:104AC00000E000BF01B5FFF7B7FF002848BF10F1B5
:104AD000000F01BD4DF808EDFFF7F4FF0CBF0120FA
:104AE00000205DF808FB00BF4DF808EDFFF7EAFF76
:104AF00034BF012000205DF808FB00BF4DF808ED31
:104B0000FFF7E0FF94BF012000205DF808FB00BF25
:104B10004DF808EDFFF7CEFF94BF012000205DF8AF
:104B200008FB00BF4DF808EDFFF7C4FF34BF0120BC
:104B300000205DF808FB00BF4FEA410212F50012A9
:104B400015D211D56FF47873B3EB625212D94FEAD4
:104B5000C12343F0004343EA505311F0004F23FABE
:104B600002F018BF404270474FF00000704750EA13
:104B7000013005D111F0004008BF6FF000407047D0
:104B80004FF00000704700BF80F0004002E000BF1F
:104B900081F0004142001FBF5FEA410392EA030F28
:104BA0007FEA226C7FEA236C6AD04FEA1262D2EB72
:104BB0001363C1BFD218414048404140B8BF5B4277
:104BC000192B88BF704710F0004F40F4000020F010
:104BD0007F4018BF404211F0004F41F4000121F026
:104BE0007F4118BF494292EA030F3FD0A2F1010270
:104BF00041FA03FC10EB0C00C3F1200301FA03F1AE
:104C000000F0004302D5494260EB4000B0F5000FD0
:104C100013D3B0F1807F06D340084FEA310102F18F
:104C20000102FE2A51D2B1F1004F40EBC25008BF41
:104C300020F0010040EA03007047490040EB00000B
:104C400010F4000FA2F10102EDD1B0FA80FCACF13A
:104C5000080CB2EB0C0200FA0CF0AABF00EBC25039
:104C600052421843BCBFD0401843704792F0000F27
:104C700081F4000106BF80F400000132013BB5E77A
:104C80004FEA41037FEA226C18BF7FEA236C21D0F0
:104C900092EA030F04D092F0000F08BF0846704755
:104CA00090EA010F1CBF0020704712F07F4F04D123
:104CB000400028BF40F00040704712F100723CBF36
:104CC00000F50000704700F0004343F0FE4040F460
:104CD000000070477FEA226216BF08467FEA23631E
:104CE0000146420206BF5FEA412390EA010F40F409
:104CF000800070474FF0000304E000BF10F0004355
:104D000048BF40425FEA000C08BF704743F096433B
:104D100001464FF000001CE050EA010208BF704756
:104D20004FF000030AE000BF50EA010208BF7047DD
:104D300011F0004302D5404261EB41015FEA010CF2
:104D400002BF84460146002043F0B64308BFA3F1EA
:104D50008053A3F50003BCFA8CF2083AA3EBC253CC
:104D600010DB01FA02FC634400FA02FCC2F12002EB
:104D7000BCF1004F20FA02F243EB020008BF20F022
:104D80000100704702F1200201FA02FCC2F1200288
:104D900050EA4C0021FA02F243EB020008BF20EA7D
:104DA000DC7070474FF0FF0C1CEAD0521EBF1CEAAB
:104DB000D15392EA0C0F93EA0C0F6FD01A4480EA99
:104DC000010C400218BF5FEA41211ED04FF0006382
:104DD00043EA501043EA5111A0FB01310CF00040AE
:104DE000B1F5000F3EBF490041EAD3715B0040EAD4
:104DF000010062F17F02FD2A1DD8B3F1004F40EBA4
:104E0000C25008BF20F00100704790F0000F0CF076
:104E1000004C08BF49024CEA502040EA51207F3A3A
:104E2000C2BFD2F1FF0340EAC250704740F4000015
:104E30004FF00003013A5DDC12F1190FDCBF00F006
:104E400000407047C2F10002410021FA02F1C2F1B4
:104E5000200200FA02FC5FEA310040F1000053EA50
:104E60004C0308BF20EADC70704792F0000F00F09E
:104E7000004C02BF400010F4000F013AF9D040EAA4
:104E80000C0093F0000F01F0004C02BF490011F438
:104E9000000F013BF9D041EA0C018FE70CEAD15336
:104EA00092EA0C0F18BF93EA0C0F0AD030F0004CB6
:104EB00018BF31F0004CD8D180EA010000F000406A
:104EC000704790F0000F17BF90F0004F084691F028
:104ED000000F91F0004F14D092EA0C0F01D1420262
:104EE0000FD193EA0C0F03D14B0218BF084608D12B
:104EF00080EA010000F0004040F0FE4040F4000075
:104F0000704740F0FE4040F4400070474FF0FF0C07
:104F10001CEAD0521EBF1CEAD15392EA0C0F93EA4E
:104F20000C0F69D0A2EB030280EA010C49024FEAA0
:104F3000402037D04FF0805343EA111143EA101359
:104F40000CF000408B4238BF5B0042F17D024FF411
:104F5000000C8B4224BF5B1A40EA0C00B3EB510FEC
:104F600024BFA3EB510340EA5C00B3EB910F24BFD5
:104F7000A3EB910340EA9C00B3EBD10F24BFA3EB5A
:104F8000D10340EADC001B0118BF5FEA1C1CE0D122
:104F9000FD2A3FF650AF8B4240EBC25008BF20F0D5
:104FA000010070470CF0004C4CEA50207F32C2BF29
:104FB000D2F1FF0340EAC250704740F400004FF0C6
:104FC0000003013A37E792F0000F00F0004C02BFF7
:104FD000400010F4000F013AF9D040EA0C0093F0C1
:104FE000000F01F0004C02BF490011F4000F013B1B
:104FF000F9D041EA0C0195E70CEAD15392EA0C0F83
:1050000008D142027FF47DAF93EA0C0F7FF470AFBA
:10501000084676E793EA0C0F04D14B023FF44CAFFD
:1050200008466EE730F0004C18BF31F0004CCAD192
:1050300030F000427FF45CAF31F000437FF43CAFCE
:105040005FE700BF03460846194600F001B800BFFD
:1050500030B405460C46134602202946224630BC91
:1050600002F00ABB70B54BF65C064BF65C05C0F26D
:105070000006C0F20005761BB61007D0043D0024E0
:1050800055F8043F01349847A642F9D14BF678060B
:105090004BF65C05C0F20006C0F20005761B06F078
:1050A000D7FBB61008D0043D002455F8043F013466
:1050B0009847A642F9D170BD70BD00BF48F6246381
:1050C0000146C1F6FF73186800F008B848F624637B
:1050D0000146C1F6FF73186803F0C4BB2DE9F04F19
:1050E00001F10B04162C83B0074630D924F00704D5
:1050F000E30F8C422CBF194643F0010100292FD148
:10510000384600F03DFCB4F5FC7F2ED24FEAD40CBB
:1051100048F61426C1F6FF7606EBCC02D36893421C
:1051200000F01182596803F10808DA68384621F066
:10513000030499681B195C68CA6044F0010491601B
:105140005C6000F01FFC404603B0BDE8F08F002318
:1051500010248C422CBF194643F001010029CFD006
:105160000C234FF000083B60EDE75FEA542C04BFCE
:105170004FEAD40C4FEA4C0540F08F8048F61426D5
:10518000C1F6FF7606EB8505EB689D4206D10DE082
:10519000002A80F25581DB689D4207D0596821F0D2
:1051A00003010A1B0F2AF3DD0CF1FF3C0CF1010C8B
:1051B00048F614223369C1F6FF7202F1080E7345F6
:1051C00008BFD2F8049022D0586820F00300011BD9
:1051D0000F2900F384810029C2F814E0C2F810E01E
:1051E00066DAB0F5007F80F04E81C1084FF001080B
:1051F00002EBC100891008FA01F851688568D8608F
:1052000048EA0109C2F804909D60EB6083600122C6
:105210004FEAAC0302FA03F34B4554D819EA030FE3
:105220000DD193402CF0030C19EA030F0CF1040C80
:1052300005D15B000CF1040C19EA030FF9D006EB61
:10524000CC09E0464846C268904207D15BE100299C
:1052500080F28381D268904200F05581556825F034
:105260000305291B0F29F2DD90461319D56844F078
:10527000010058F8084F41F0010C50603846C3F85F
:1052800004C0E560AC6073613361C3F80CE0C3F83F
:1052900008E0595000F076FB55E7BCF1040F00F22E
:1052A000DE804FEA941C0CF1380C4FEA4C0565E7A0
:1052B0001A1803F108083846536843F00103536095
:1052C00000F060FB3FE7B5686B6823F0030A5445C4
:1052D00004D8C4EB0A030F2B00F3A48049F2503921
:1052E000D6F80814C1F6FF7905EB0A020131D9F8A6
:1052F0000030234408BF03F1100B06D003F58053A0
:105300000F3323F47F6323F00F0B38465946019285
:1053100000F020FD019A411C804600F06881824225
:1053200000F23181D9F8043042455B44C9F80430B9
:1053300000F06681D6F8081448F61420C1F6FF7014
:10534000013117BFC2EB0802C0F808849B18C9F8E6
:10535000043018F0070338461FBFC3F10802C3F535
:105360008053904403F1080208EB0B0308BF4FF48D
:1053700080521B051B0DC3EB020B594600F0EAFCE3
:10538000431C00F04981C8EB0001594441F0010180
:10539000D9F80430B54249F25032C6F808805B446F
:1053A000C1F6FF72C8F80410C9F8043018D0BAF179
:1053B0000F0F40F20B81AAF10C00696820F0070082
:1053C0004FF0050C05EB000E0F2801F0010140EA3B
:1053D00001016960CEF804C0CEF808C000F2208157
:1053E00049F25032D9F82C10C1F6FF72B5688B42E1
:1053F000D9F8301088BFD36249F25032C1F6FF723B
:105400008B4288BF13636A6822F003029442C4EBA4
:10541000020301D80F2B05DC38464FF0000800F0DE
:10542000B1FA90E62A1943F0010344F0010438462A
:105430006C6005F108085360B26000F0A3FA82E6E0
:105440005918DA689C6838464D6803F1080845F039
:105450000105E26094604D6000F094FA73E6BCF1DF
:10546000140F9CBF0CF15B0C4FEA4C057FF686AE27
:10547000BCF1540F00F293804FEA143C0CF16E0C17
:105480004FEA4C057AE6420A042A75D9142A9CBFD1
:1054900002F15B094FEA490508D9542A00F2C98094
:1054A0004FEA103909F16E094FEA490506EB850507
:1054B00048F61428C1F6FF78AA68AA4279D0516844
:1054C00021F00301884202D292689542F7D1D06858
:1054D000D6F80490D8609A60D360836097E61D196F
:1054E00041F00106556144F00104156138465C60E5
:1054F00003F10808C5F80CE0C5F808E06E606950D3
:1055000000F040FA1FE608F10108083018F0030F18
:105510007FF499AE4A461CF0030FA2F108010CF18A
:10552000FF3C00F09E8012688A42F4D072685B00F3
:1055300093423FF6C8AE002B3FF4C5AE1A4200F0CE
:105540009580C4467BE603F108025B699A4208BF76
:105550000CF1020C3FF42CAEE4E590465519D368EB
:10556000384658F8082F6968D36041F001019A6005
:10557000696000F007FAE6E54FEA901909F1380989
:105580004FEA490592E7B54248F61423C1F6FF7386
:105590003FF4C8AE9D686A6822F0030236E7BCF5A6
:1055A000AA7F19D84FEAD43C0CF1770C4FEA4C058E
:1055B000E4E50125D8F804104FEAA909104605FAD8
:1055C00009F545EA0109C8F8049083E70123454637
:1055D000C8F80430002219E740F254539C450BD818
:1055E0004FEA944C0CF17C0C4FEA4C05C6E5B568CB
:1055F0006A6822F0030209E7FC254FF07E0CBDE546
:105600001105090D00297FF495AEB2680BEB0A0174
:1056100041F001015160E3E601214FF0000BB7E6D4
:10562000384605F10801019203F01CF9019A53680C
:10563000D6E6B2F5AA7F06D84FEAD03909F1770944
:105640004FEA490532E740F25451FC258A424FF0B7
:105650007E099EBF4FEA904909F17C094FEA49054E
:1056600024E7726822EA0302726060E75B0008F1D7
:10567000040863E7032A2DE9F00F09D82AB10023B3
:10568000CC5CC45401339342FAD1BDE8F00F7047AB
:10569000830702440ED0441C4D1C15F8017C04F015
:1056A0000306234601342946013504F8027C002E06
:1056B000F3D100E0034611F003046DD0D71A0D1B9F
:1056C000032F2E6819DDC4F1040C4FEAC4081C1D19
:1056D0004FEACC0C55F8047FC4EB02092346043191
:1056E0000434B9F1030F26FA08FA07FA0CFB3E4618
:1056F0004BEA0A0744F8087CECDC9A42C5D901332E
:105700000131013211F8014C01330131934203F8A8
:10571000024CF7D1B9E70C684033403143F8404CB4
:1057200051F83C4C43F83C4C51F8384C43F8384C59
:1057300051F8344C43F8344C51F8304C43F8304C69
:1057400051F82C4C43F82C4C51F8284C43F8284C79
:1057500051F8244C43F8244C51F8204C43F8204C89
:1057600051F81C4C43F81C4C51F8184C43F8184C99
:1057700051F8144C43F8144C51F8104C43F8104CA9
:1057800051F80C4C43F80C4C51F8084C43F8084CB9
:1057900051F8044C43F8044CD41A3F2CBBDC11E004
:1057A0000C681033103143F8104C51F80C4C43F88E
:1057B0000C4C51F8084C43F8084C51F8044C43F891
:1057C000044CD41A0F2CEBDC032C96DD1C1D0D1D94
:1057D00055F8047C161B2346294604340435032E51
:1057E00044F8087CF4DC88E78842F0B411D98C18BE
:1057F000A0420ED28518531E4AB121462A4611F8FE
:10580000014D013BB3F1FF3F02F8014DF7D1F0BC70
:1058100070470F2A47D941EA00039B0745D10C4640
:1058200003461546266810331034103D0F2D43F8FB
:10583000106C54F80C6C43F80C6C54F8086C43F87A
:10584000086C54F8046C43F8046CEBD8A2F1100512
:1058500002F00F0425F00F051035032C00EB0503B3
:10586000294424D9A4F1040C1D460C464FEA9C0C93
:1058700001EB8C07043754F8046BBC4245F8046B09
:10588000F9D10CF1010402F00302A40009191B195B
:10589000002ABCD001399A1811F8014F03F8014BC6
:1058A0009342F9D1B3E70346F2E70346F2E7224613
:1058B000EEE700BF032AC9B270B408D82AB1034684
:1058C000121803F8011B9342FBD170BC7047830789
:1058D000024409D0441C04F00305234604F8011CCB
:1058E0000134002DF7D100E00346D51A01EB012465
:1058F0003F2D04EB04442CDD1C604033D51A43F8E3
:105900003C4C3F2D43F8384C43F8344C43F8304C72
:1059100043F82C4C43F8284C43F8244C43F8204CD3
:1059200043F81C4C43F8184C43F8144C43F8104C03
:1059300043F80C4C43F8084C43F8044CDCDC08E01A
:105940001C601033D51A43F80C4C43F8084C43F84C
:10595000044C0F2DF4DC032D08DD1D1D561B45F8EE
:10596000044C032E2B4605F10405F7DC9A42ACD912
:105970000133013203F8011C01339342FAD1A4E749
:10598000704700BF704700BF2DE9F04F0C4683B051
:1059900081461746002900F01C8107F10B05FFF72F
:1059A000EFFF54F8042C162DA4F1080A22F0030688
:1059B00075D8102100230D46BD4238BF43F00103C6
:1059C000002B40F00C818E426EDA48F6142B0AEB65
:1059D0000600C1F6FF7BDBF808E0864500F0048195
:1059E000D0F804C02CF001088044D8F8048018F0E6
:1059F000010F1CBF9C4660466FD0D30700F1C380E7
:105A000054F8083CC3EB0A035A6822F003029219C7
:105A1000019200286CD0704500F037810CEB020831
:105A2000884565DBC1681F468068321F242A88606C
:105A3000C16057F8080FD968C160886000F27881AA
:105A4000132A9CBF394620461FD921681B2A98BFBC
:105A500004F1080099606168D96098BF03F11001F2
:105A600013D9A168242A14BF04F1100004F118000E
:105A70001961E168596111BF03F11801226903F14D
:105A800020019A6104BF6269DA6102683C460A60DB
:105A90009A4642684A6082688A605A6805E025F042
:105AA00007052946EB0F87E7B046C5EB08030F2B28
:105AB00055D80AEB080302F0010242EA0802CAF8CC
:105AC00004205A6842F001025A6048462746FFF710
:105AD00059FF384603B0BDE8F08F2CF0030C0CEBF7
