:1000000000800020BD010000D91D0000A51D0000DA
:10001000A51D0000A51D0000A51D0000A51D0000D8
:10002000A51D0000A51D0000A51D0000D91D000094
:10003000D91D0000A51D0000D91D0000951D000060
:10004000D91D0000D91D0000D91D0000D91D0000D8
:10005000D91D0000D91D0000D91D0000D91D0000C8
:10006000D91D0000D91D0000D91D0000D91D0000B8
:10007000D91D0000D91D0000D91D0000D91D0000A8
:10008000D91D0000D91D0000D91D0000D91D000098
:10009000D91D00006D110000D91D0000D91D000000
:1000A000D91D0000D91D0000D91D0000D91D000078
:1000B000D91D0000D91D0000D91D0000D91D000068
:1000C000D91D0000D91D0000D91D0000D91D000058
:1000D000D91D0000D91D0000D91D0000D91D000048
:1000E000D91D0000D91D0000D91D0000D91D000038
:1000F000D91D00006D270000D91D0000292E000029
:10010000D91D0000A1420000D91D0000D91D00002A
:10011000D91D0000D91D0000D91D0000D91D000007
:10012000D91D0000D91D0000D91D0000D91D0000F7
:10013000D91D0000D91D0000D91D0000D91D0000E7
:10014000D91D0000D91D0000D91D0000D91D0000D7
:100150001D3A0000353A00004D3A0000653A0000B3
:10016000D91D0000C5300000D91D0000D91D0000B8
:10017000D91D0000D91D0000D91D0000D91D0000A7
:10018000D91D0000D91D0000D91D0000D91D000097
:10019000D91D0000D91D0000D91D0000D91D000087
:1001A000D91D0000D91D0000D91D0000D91D000077
:1001B000D91D0000D91D0000D91D0000564B4CF27E
:1001C000205210B51A804DF628121A8000BF00BFC9
:1001D00000F0B8FA514B4FF010621A60504A9A6022
:1001E000504ADA60A3F53043203B1A6812F480725B
:1001F00004D14D490A604FF4A8521A604B4B1A784B
:10020000110703D51A7842F008021A70484B2A22C7
:100210001A700023474A48499818884204D247492F
:10022000595899500433F5E7454A464B9A424FF0E6
:10023000000302D242F8043BF7E74349434A5958C6
:1002400099500433B3F5DE7FF7D1414B802103F899
:10025000011B40498B42F9D13F4B1A603F4B8A2228
:100260001A70A3F5805324225A70A0221A709A792A
:100270009207FCD59A79D406FCD4394B9A7902F0CE
:100280000C02082AF9D103221A7140225A719A7974
:100290009006FCD5324B9A795106FBD5314A32494A
:1002A00011600221516020221A702D4B9B7903F0BE
:1002B0000C030C2BF9D12D4B2D4A1A602D4B45F612
:1002C000BF521A6000225A60072243F8042C2A4ABF
:1002D000C3F80C2D62B601F03DFF134B1B68DA0723
:1002E00005D5264801F0A2FD254B264A1A60264B6B
:1002F0001B785B0609D5224C224A2368934204D11D
:100300001E4801F093FD0023236004F0ABFB01F0D5
:1003100066FD03F0C8FCFEE70E2005403080044077
:10032000823F04000100002B14D0034002D007409C
:1003300000E007406089FF1F788AFF1F046000000B
:10034000788AFF1FDC8DFF1F000000000084FF1F64
:1003500000E400E05FE400E008ED00E0005006404B
:1003600000400640448004400000333304800440D1
:10037000C010050014E000E0000020200521E55732
:100380001CE00340A5C3945A00F00740FFFFFFFFA5
:10039000FFFFFFFFFFFFFFFFFFFFFFFFFFFFFFFF6D
:1003A000FFFFFFFFFFFFFFFFFFFFFFFFFFFFFFFF5D
:1003B000FFFFFFFFFFFFFFFFFFFFFFFFFFFFFFFF4D
:1003C000FFFFFFFFFFFFFFFFFFFFFFFFFFFFFFFF3D
:1003D000FFFFFFFFFFFFFFFFFFFFFFFFFFFFFFFF2D
:1003E000FFFFFFFFFFFFFFFFFFFFFFFFFFFFFFFF1D
:1003F000FFFFFFFFFFFFFFFFFFFFFFFFFFFFFFFF0D
:10040000FFFFFFFFFFFFFFFFFFFFFFFFDEF9FFFF23
:1004100010B5054C237833B9044B13B10448AFF33E
:1004200000800123237010BD788AFF1F00000000A8
:100430000460000008B5064B1BB106480649AFF33F
:1004400000800648036813B1054B03B1984708BD07
:1004500000000000046000007C8AFF1F788AFF1FF4
:100460000000000008B50368C9B21B68984708BDC2
:1004700008B50368C9B21B68984708BD08B503688A
:10048000C9B21B68984708BD08B50368C9B21B68A4
:10049000984708BD08B50368C9B21B68984708BDEE
:1004A00008B50368C9B21B68984708BD08B503685A
:1004B000C9B21B68984708BD08B50368C9B21B6874
:1004C000984708BD024B4FF400121A60704700BFF6
:1004D00080E100E072B6044B4AF202621A804BF2ED
:1004E00080421A8062B670470C2005404B0803F129
:1004F000377000F5D840B0FBF1F001F07BBEFFFF94
:10050000044B1868400000EB5100B0FBF1F001F023
:1005100071BE00BFD88AFF1F10B54B0803F13770BA
:1005200000F5D8401446B0FBF1F001F063FE204620
:10053000BDE8104001F0C2BE074B10B5186840007E
:1005400000EB51001446B0FBF1F001F053FE2046E1
:10055000BDE8104001F0B2BED88AFF1F01F0D8BE3E
:10056000084601F009BF084601F058BF0846114689
:1005700001F01EBF08B5084601F076FF003018BF35
:10058000012008BD08B5084601F090FF003018BFF3
:10059000012008BD02F074B802F0ACB802F080B8D7
:1005A00002F052B802F0BEB802F058B808B50846DA
:1005B00001F0A2FF012008BD08B5084601F09CFF2C
:1005C000012008BD10B508461446114601F0DEFFB3
:1005D000204610BD38B508460D4604F03AFB0446E7
:1005E0002146284601F0D2FF204638BD4B0803F1D2
:1005F000377000F5D840B0FBF1F002F03BB9FFFFD7
:10060000044B1868400000EB5100B0FBF1F002F021
:1006100031B900BFD88AFF1F10B54B0803F13770FE
:1006200000F5D8401446B0FBF1F002F023F9204663
:10063000BDE8104002F082B9074B10B518684000C1
:1006400000EB51001446B0FBF1F002F013F9204624
:10065000BDE8104002F072B9D88AFF1F02F098B9C5
:10066000084602F0EDB9084602F03CBA08461146C9
:1006700002F002BA08B5084602F05CFA003018BF72
:10068000012008BD08B5084602F076FA003018BF10
:10069000012008BD02F052BB02F08ABB02F05EBB33
:1006A00002F030BB02F09CBB02F036BB08B5084636
:1006B00002F080FA012008BD08B5084602F07AFA77
:1006C000012008BD10B508461446114602F0BCFAD8
:1006D000204610BD38B508460D4604F0BAFA044667
:1006E0002146284602F0B0FA204638BD08B501F090
:1006F0000FFEBDE8084001F031B808B502F048F936
:10070000BDE8084001F03EB810B5044603F05EFABB
:10071000204610BD38B5044608460D4604F099FA47
:10072000236802465B6820462946984738BD38B59D
:100730000446FFF7EFFF0546204603F051FA284430
:1007400038BDFFFF054B40F6B8321A80002223F86F
:10075000022CD12223F8062C704700BF062005404A
:1007600010B5C4B22046002101F09EFB20460121B5
:10077000BDE8104001F06ABB10B5C4B220460121AB
:1007800001F092FB20460021BDE8104001F05EBB65
:1007900010B5C4B22046022101F086FB204601F0CC
:1007A00075FB0028D4BF0020012010BD0A7902711A
:1007B0008A6882600A7B0273014A0260704700BF48
:1007C000F852000038B50A4D0A490446284600F0A0
:1007D00013FDC4F30721002001F0BAFAE1B20120B1
:1007E00001F0B6FA28460449BDE8384000F004BDDF
:1007F000C88AFF1F00366E0180841E0010B50020DD
:1008000001F092FA0446012001F08EFA00EB042078
:1008100010BDFFFF10B50446FFF7C8FF014B236072
:10082000204610BD1854000010B504460D2001F0FC
:1008300079FB204601F078FC0D200021BDE8104036
:1008400001F004BB0CB430B50446C3B010200D4613
:10085000FFF79EFF28B91120FFF78EFF0A2001F055
:1008600063FC47AB4FF48071469A019302A804F0F1
:1008700021FA02F0B5FA204602A9FFF74BFF044621
:1008800002F040FA1DB101208021FFF7CDFF1120B9
:10089000FFF766FF204643B0BDE8304002B0704726
:1008A00070B5064694B017200D46012101F0CEFA2E
:1008B000642001F039FC01F0E3FE28B91720002183
:1008C00001F0C4FA14B070BD062404AA40230D211F
:1008D000304603F0C7F929466846FFF79BFF684694
:1008E0000021034A04ABFFF7ADFF013CEDD1E5E782
:1008F00001560000021F00232DE9F04102EB810C9C
:100900001D4618468B4216DA52F8047F002416461C
:10091000664505D056F8048FB84508BF0134F7E79F
:10092000AC42C8BF2546C3EB0104C8BF3846AC4241
:1009300003F10103E6DABDE8F081FFFFF0B58DB009
:1009400000240546012117200194ADF8084001F06C
:100950007DFA4FF4FA7001F0E7FB2846142103F00A
:100960006BF9284601A9012203F068F9002840D05C
:1009700001F0D8FE0A2001F0D7FB01F0BBFE52289F
:1009800002D001F08DFEF8E728464FF47A7103F0AB
:1009900053F9062328460D2101AA03F063F99DF8B7
:1009A0000430522B03AB22D19DF805003038C2B27F
:1009B000092A1CD89DF80660303EF2B2092A16D8E2
:1009C0009DF807103039CAB2092A10D89DF80820BE
:1009D000303AD7B2092F0AD864277E434FF47A778A
:1009E00007FB00600A2606FB01010A4403E0124AE5
:1009F00001E0124A03ABE2500434242CADD117209D
:100A0000002101F023FA03A80921FFF773FF41F247
:100A100088339842044606D0A3F5FA53B0F5FA7F1E
:100A200008BF1C4600E0064C01F07CFE01F00CFE05
:100A300020460DB0F0BD00BF18FCFFFF78ECFFFFB3
:100A400030F8FFFF1FB501466846FFF7AFFE054BC4
:100A500000936846FFF772FF0446FFF7B3FE204697
:100A600004B010BDB853000038B51649164800F060
:100A7000C3FB0121162001F0E9F9002001F014F870
:100A80000A2001F035F8202001F05CF80A2001F07E
:100A90004BFB0A2400250E2001F07EF8013C0544A2
:100AA000F9D12146162001F0D1F90849064800F095
:100AB000A3FB0A2095FBF0F003F0F4FD044903F0DA
:100AC00045FE38BD00366E01C88AFF1F80841E00B7
:100AD000E8E78F3B10B5C4B22046012101F0B6F91A
:100AE000FA2001F021FB20460021BDE8104001F072
:100AF000ADB9FFFF10B594B040220446002104A810
:100B000000F0E2FE04A8124904F096F804A8114986
:100B100004F092F804A8104904F08EF804A80F49D4
:100B200004F08AF80E4904A804F086F8322001F097
:100B3000FBFA21466846FFF76DFE0021094A04AB27
:100B40006846FFF77FFE322001F0EEFA14B010BDC8
:100B500073540000B05F0000A65400000758000066
:100B6000A95400000156000030B5044685B032207B
:100B700001F0DAFA214668463D4DFFF74BFE3D4A4B
:100B80003D4B68460121FFF75DFE21466846FFF7B1
:100B900041FE2A46394B68460021FFF753FE2146A5
:100BA0006846FFF737FE2A46354B68460021FFF7B7
:100BB00049FE21466846FFF72DFE2A46314B68461E
:100BC0000021FFF73FFE21466846FFF723FE2A4635
:100BD0002D4B68460021FFF735FE21466846FFF79A
:100BE00019FE2A46294B68460021FFF72BFE2146B5
:100BF0006846FFF70FFE2A46254B68460021FFF79F
:100C000021FE21466846FFF705FE2A46214B68462D
:100C10000021FFF717FE21466846FFF7FBFD2A4635
:100C20001D4B68460021FFF70DFE21466846FFF781
:100C3000F1FD1A4A1A4B68460021FFF703FE2146D0
:100C40006846FFF7E7FD2A46164B68460021FFF786
:100C5000F9FD21466846FFF7DDFD00212A46124BCB
:100C60006846FFF7EFFD322001F05EFA05B030BDB7
:100C7000FF55000001560000B5540000C9540000A3
:100C8000E55400000A5500003E5500006155000083
:100C900086550000AB550000DD550000FD550000F5
:100CA0000556000034560000535600001FB5264C70
:100CB0002649274800F0A0FA20464FF41641FFF7D6
:100CC0009FFC24484FF41651FFF71AFC0320022121
:100CD00001F0EAF80220014601F0E6F817200121B0
:100CE00001F0E2F81620012101F0DEF815200121C3
:100CF00001F0DAF80D20012101F0D6F817200021CB
:100D000001F0A4F81520002101F0A0F80021162020
:100D100001F09CF81120FFF72FFD0F4A0F491048F2
:100D200002F03EFF01F0EEFF02F05AF8214668465D
:100D3000FFF770FD6846FFF7DDFE4FF4FA70FF2104
:100D4000FFF772FD04B010BDA48AFF1F80841E004F
:100D5000C88AFF1F948AFF1FFF1AB700D50400003E
:100D6000B48AFF1F30B58BB001F0E8FF002800F017
:100D70002D8101F0F3FFC0B23F38172800F2268121
:100D8000DFE810F01D0124011800320054006E004D
:100D9000240124018B0024012401240124012401C5
:100DA000240124012401240124019800AC00E9005D
:100DB00024010401864906A8FFF72CFD06A8FFF7C9
:100DC00099FE02A88349FFF7F1FC834B8049029307
:100DD00006A8FFF71FFD02A806A9FFF761FD012085
:100DE0008021FFF721FDF1E0FF214FF4FA70FFF7BA
:100DF0001BFD322001F098F9FF214FF4FA70FFF744
:100E000013FD322001F090F9FF214FF4FA70FFF743
:100E10000BFD322001F088F91520FFF75BFE322030
:100E200001F082F96D4B6E4A1A60CFE0694906A85D
:100E3000FFF7BCFC684B069306A8FFF703FE0546C8
:100E4000FFF7DCFCA842044640F0C080604906A8D9
:100E5000FFF7E0FC009406A80121624A4323ABE0BF
:100E6000FFF7CCFC5B49054606A8FFF79FFC5A4BF1
:100E7000069306A8FFF762FD041E04DBAC42B4BF74
:100E8000C4EB05040024524906A8FFF7C3FC0094F4
:100E900006A80121534A44238EE0FFF7AFFC4C49DA
:100EA000044606A8FFF7B6FC009406A801214D4AA7
:100EB000472381E0474906A8FFF778FC464B069395
:100EC00006A8FFF73BFD4249044606A8FFF7A2FC2F
:100ED000009406A80121434A52236DE000230293A7
:100EE0008DF80C300D210523394802AA02F0BAFE14
:100EF0009DF808103039CBB2092B21D89DF8090094
:100F00003038C3B2092B1BD89DF80A20303AD3B22F
:100F1000092B15D89DF80B30303BDCB2092C0FD8CB
:100F2000642460434FF47A7404FB01010A2000FB3F
:100F300002101844FFF746FCFFF760FC044600E08F
:100F4000294C234906A8FFF765FC009406A8012157
:100F5000244A532330E0032000F098FF0446022087
:100F600000F094FF44EA40000138022898BF1F4B6C
:100F7000174994BF1C564FF0FF3406A8FFF74AFCF0
:100F8000009406A80121174A542315E0FFF76CFDD1
:100F90000F49044606A8FFF73DFC1549204603F01B
:100FA000D5FB4FF07C5103F0C9FA03F01FFD0D4A49
:100FB0000090012106A85623FFF744FC06E006A88E
:100FC0000349FFF727FC06A8FFF7CEFD0BB030BDA5
:100FD000A48AFF1F948AFF1FB85300000CED00E0A5
:100FE0000400FA05CD57000060F0FFFF70540000C8
:100FF0000000C84208B5034800F0F4F9BDE8084015
:10100000FFF7B0BEC88AFF1FF8B5164C164D00F0AA
:1010100047FE204600F050F82046144C14492A465A
:10102000102703F009FD3A462046002100F04CFC51
:101030004FF47A760F4BA66023600F4C3A46204659
:10104000002100F041FC0D4B0D482360002303708C
:1010500080234373A6602A460A49BDE8F84003F09E
:10106000EBBC00BFC88AFF1F6089FF1F948AFF1F67
:10107000C5040000B8530000A48AFF1F18540000E4
:10108000B48AFF1F0907000072B6BFF35F8FBFF37A
:101090004F8FBFF36F8F0120704780F31088BFF32D
:1010A0005F8FBFF34F8FBFF36F8FBFF35F8FBFF3C0
:1010B0004F8FBFF36F8F70471F4B2A2210B51A70E6
:1010C0001E4A136843F0806313601D4B196821F0BA
:1010D00080411960116841F0007111601A68194966
:1010E00022F000521A60184B00221A7001230B7074
:1010F00016490B6001F5013101F52D7104460868B0
:1011000000B90B60124B13491A605A600A60124A08
:10111000012111605A6842F008025A605A680A4375
:101120005A6000F099F90D4A0D4B13600D4A136097
:101130000D4A2046136010BD00E0074004700440D3
:10114000007004402800C8422000C8424C008E4273
:10115000000004400800044088008042D88AFF1F35
:1011600000366E01D08AFF1FDC8AFF1F70B51C4B52
:101170004FF400121A601B4B1C78E4B2012C1D4680
:101180002AD172B600F068F9064662B600F0BEFADF
:10119000154B1A6812F480320CD0144B1C604FF0BF
:1011A000854300221A6003F5801303F5E063196894
:1011B00089B103E01968890202D50D4B1A600AE073
:1011C0001A68D20202D500F06FFB04E01B689B0393
:1011D00001D500F037F96E60064B1B68984770BD6B
:1011E00080E100E00082FF1FD48AFF1F08008042D8
:1011F00088037A42CC8AFF1F70B56B4D2B688B42F7
:101200000C4600F0CF8000F045F9012809D1EFF33A
:101210001086FFF739FFA8B100F016FB00F03CFA8A
:1012200010E000F037F9062811D1EFF31086FFF730
:101230002BFF38B15D4B1B78042B01D100F004FB70
:1012400000F0C4F93046FFF728FF00F0AFFA584B22
:10125000584A9C42584B12D958492960116019606C
:10126000EFF31084FFF710FF20B1554A00231360FD
:10127000544A13602046FFF710FF504870BD524992
:101280008C4220D12C601460504A1A6000F0A6FAFB
:10129000EFF31084FFF7F8FE80B100F0BFF90020F3
:1012A0000146012240F2CF7300F046FA002000F020
:1012B000AFFA434A00231360424A13602046FFF707
:1012C000ECFE414870BD42498C4220D12C60146034
:1012D0003E4A1A6000F082FAEFF31084FFF7D4FE62
:1012E00080B100F05BF9032001460F2240F69F73A6
:1012F00000F022FA002000F08BFA314A002313603C
:10130000304A13602046FFF7C8FE314870BD3149AE
:101310008C421CD12C6014601C6000F05FFAEFF36B
:101320001084FFF7B1FE68B100F038F901200246E1
:1013300041F63F73014600F0FFF9214A0023136094
:10134000204A13602046FFF7A8FE224870BD2249BC
:101350008C4220D12C6014601C6000F03FFAEFF347
:101360001084FFF791FE88B100F018F900200146C3
:10137000024643F67F6300F0DFF9114A1748184927
:10138000002313600F4A1360FFF7D1F92046FFF7DF
:1013900084FE114870BD094929604FF0FF3011608B
:1013A000196070BD002070BDD88AFF1F03E00740A0
:1013B000FF356E01D08AFF1FDC8AFF1F00366E01E9
:1013C000E88AFF1F18E000E080841E0040420F0002
:1013D00000093D0000127A000024F400008DFF1F78
:1013E000D7570000114B124970B505461C68FFF72E
:1013F00003FFEFF31086FFF747FE08B100F052FA43
:101400003046FFF74AFE0B4B9C4208D00A4B9C42E9
:1014100005D00A4B9C4202D0094B9C4205D128467C
:101420002146BDE87040FFF7E7BE70BDD88AFF1FB8
:1014300080841E0000093D0000127A000024F400A0
:1014400000366E01024A00231370024A136070478F
:1014500001300740CC06904270B50A490A4C0B4A4D
:1014600025780E781078FF2323700B701370084ACC
:1014700001230004137040EA062082F8203028433C
:1014800070BD00BF06C0074005C0074007C0074049
:101490001C01F842404B9A7912F00C0F1A4605D104
:1014A0009979C80602D59B79990665D592793A4B08
:1014B000C2F38102032A05D19A79D20602D49B791C
:1014C00098065BD4344B9A79C2F38102022A08D180
:1014D0009A79D10605D49A79920602D55B78980755
:1014E0004ED52D4B9A79C2F38102022A08D19A79FE
:1014F000D10605D49A79920602D45B78980741D533
:10150000254B9A79C2F38102022A1A4605D19979AC
:10151000C90602D45B78980736D490791E4BC0F385
:101520008100012808D19A79D10605D59A799206C9
:1015300002D45B789B072ED4174B9A79C2F38102B1
:10154000012A08D19A79D10605D59A79920602D452
:101550005B789B071AD5104B9A79C2F38102BAB90E
:10156000997901F0100101F0FF0099B99B7913F00E
:10157000200F08BF042070470320704708207047E1
:1015800007207047052070470620704702207047EB
:1015900000207047104670470040064008B5FFF72E
:1015A00079FF08280ED1084B1A7842F080021A7091
:1015B0009979054A01F00C010829F9D1537843F0D3
:1015C0000203537008BD00BF0040064008B5FFF796
:1015D00061FF062818D10D4B03221A7140225A715F
:1015E0005A7802F0FD025A709A799106FCD59A79E0
:1015F0005206FCD5064B074A1A60044B00221A70AB
:10160000054B45F6BF521A6008BD00BF00400640BA
:10161000448004400000033314E000E008B5FFF705
:1016200039FF082834D11B4B1A7842F080021A7017
:1016300019468A79174B02F00C02082AF9D11A7858
:1016400002F0C7021A701A7842F020021A705A7912
:1016500002F0BF025A710F4B9A799106FBD45A7867
:1016600042F001025A7064221A709A79D206FCD5AF
:10167000084B9A7912F0010F1946F9D08A79054B77
:1016800002F00C02042AF9D15A7842F002025A7090
:1016900008BD00BF0040064008B5FFF7FBFE01286B
:1016A0002BD1164B5A7802F0FD025A70A0221A7004
:1016B0009A799207FCD59A79D006FCD40F4B9A7987
:1016C00002F00C02082AF9D103221A7140225A7141
:1016D0009A799106FCD5094B9A795206FBD5084AAE
:1016E0000849116020221A709A7902F00C020C2A23
:1016F000FAD1054B45F6BF521A6008BD00400640BE
:10170000448004400000033314E000E008B5FFF714
:10171000C1FE07280AD1064B00221A70054A012192
:1017200011709A7902F00C020C2AFAD108BD00BFA0
:10173000004006401400C84201F00F01090641EACA
:10174000007002F00F0240EA02410248024A0160C2
:10175000136070474480044014E000E0074A1368B7
:10176000012B0AD1064BD97801F0F701D970D9784D
:1017700001F0FB01D970002313607047A806904266
:1017800000A00640074A1368012B0AD1064BD978FE
:1017900001F0F701D970D97801F0FB01D97000236D
:1017A00013607047AC06904200B00640094B1A68BF
:1017B00072B901221A60084B1A7802F07F021A707F
:1017C0006C3B1A7842F001021A701A78D207FCD5E5
:1017D000704700BFC8069042002107400A4B1A68B4
:1017E000012A19460ED1094B1A7842F080021A706C
:1017F0006C3B1A7802F0FE021A701A7812F001029D
:10180000FBD10A60704700BFC80690420021074024
:101810000B4B1A7802F07F02042A19460FD0023BC4
:1018200008B1C02200E040221A701B78054B1B78DB
:101830005B07FBD40A7802F07F02042AFAD17047D2
:1018400003E0074002D00740074B1B7803F07F03FB
:10185000042B08D1054B1A7802F09F021A70044B32
:101860001B785B07FBD5704703E0074001E00740AA
:1018700002D00740094B1A6822F002021A60084A97
:10188000116821F004011160BFF34F8F30BFBFF327
:101890006F8F1A6842F002021A60704710E000E091
:1018A00010ED00E0FFF7E6BF064B1A6842F48042F5
:1018B0001A601A6842F400421A601A6822F0800224
:1018C0001A6070470050044001B5EAB1102A17DBD6
:1018D00000F0070333B1C3F10803D21A013B00F84B
:1018E000011BFBDCC9B241EA012141EA01418C46FE
:1018F000D308013BE0E8021CFBDC12F0070203D036
:10190000013A00F8011BFBDC01BD00BFF0B5304B14
:101910001B681B06FBD42F4B1B6813F08002F6D10B
:1019200072B62D4B1978002950D02C4908684F68A1
:101930008E68CD680C6938441431304409682844F5
:1019400020440844C0F34E00254940F4004008609C
:10195000C86A0F6B4E6B8D6BCC6B38444031304492
:101960000968284420440844C0F34E001D4940F44F
:101970000040086001F10811143151F8140C51F8BD
:10198000107C51F80C6C51F8085C51F8044C096853
:1019900038443044284420440844C0F34E001249DF
:1019A00040F400400860C86A0F6B4E6B8D6BCC6BC7
:1019B0003844403130440968284420440844C0F386
:1019C0004E000A4940F4004008601A7062B6F0BD4B
:1019D00024B0034024B00B40E18AFF1F38B003401D
:1019E0002CB0034030B003402CB00B4030B00B4063
:1019F00010B5204B2048214960221A70E1225A700C
:101A00001F4B204A1C78204B082C01D1002402E0F7
:101A10000A2C03D138240460132005E00C2C0CBFE1
:101A200034243C2404601220086014601860174BB2
:101A300017491B78174A03B101230B601360164B3B
:101A4000164A1978164B012901D880210BE0042988
:101A500001D8842107E0082901D8852103E0102955
:101A600094BF86218721116019600E4B01221A70E4
:101A700010BD00BF0040074008B003400CB0034059
:101A80006489FF1F08B00B400CB00B40E48AFF1FB5
:101A900020B0034020B00B406589FF1F24B00340F5
:101AA00024B00B40E18AFF1F0E4B1A7860B1BAB91F
:101AB000012119700C4B1B7823B10C4B1A6003F5F4
:101AC00000231A60FFF794BF52B11870064B1B78C1
:101AD000002BF7D0054B186003F500231860F1E7E1
:101AE000704700BFE48AFF1FE18AFF1F24B0034054
:101AF0000C2804D9102828BF1020102307E00A283A
:101B000004D8092834BF08230A2300E00C23094A1B
:101B1000D9B2081A1070084A1078834208D0074BCF
:101B200011701B7813B1064B00221A60FFF760BFDB
:101B3000704700BFE08AFF1F6489FF1FE18AFF1F13
:101B400024B0034010B5114B1B7804460BB1FFF7CE
:101B5000DDFE012C0E4A01D8002302E0042C02D83D
:101B6000042313600EE0082C03D805231360082318
:101B700008E0102C03D806231360102302E007238B
:101B800013602023034A137010BD00BFE18AFF1FBA
:101B900024B003406589FF1F282838B547D8254B56
:101BA0001C5CFF2C43D0244B1B780BB1FFF7AEFE1F
:101BB000210614D472B6214B214D1C6001232B70D9
:101BC00062B672B61D4B1B681A0601D51D4B1FE08D
:101BD0002B78002BEFD062B602F08EF8F1E772B6E8
:101BE000194B1A4D1A6814F0400F14BF22F010025E
:101BF00042F010021A60164B04F03F021A600123F3
:101C00002B7062B672B6124B1B681B0608D5114BBF
:101C1000186800232B7062B60F4B1B78184138BD33
:101C20002B78002BDCD062B602F066F8EAE70020E1
:101C300038BD00BF175D0000E18AFF1F00B0034000
:101C4000E38AFF1F10B003400CB00B40E28AFF1F75
:101C500000B00B4010B00B40E08AFF1F084B1A6821
:101C600042F480521A60074B1A78074B0AB180225F
:101C700000E0C0221A70054B80F30C0018807047FA
:101C80002C800440E48AFF1F21C00C4000C00C409F
:101C9000024B1B78DB07FBD5704700BF01000240F9
:101CA0007FB51C4B6A4603F110056E4618685968EB
:101CB000144603C40833AB422246F7D1164B1A78B8
:101CC00012F0020F1D461CD0144A154B117811F06A
:101CD000700118BF117080221A70002203F8032CC3
:101CE00033221A710322DA7072B60C4C46F00106E8
:101CF0002046B04762B6237813F0700301D02370FA
:101D000005E0084B2A78D20701D4013BFAD104B090
:101D100070BD00BF405D00000100024000000240B5
:101D200007000240410D0300B0F5006F10B50446F6
:101D30000AD2064B1B78DB0701D4FFF7B1FF04F191
:101D4000A0542078C0B210BD002010BD0100024098
:101D5000B0F5006F38B504460D4615D20B4B1B7815
:101D6000DB0701D4FFF79CFF04F1A0542378AB42BA
:101D70000AD0074B1A7812F0700218BF1A7025703B
:101D8000BDE83840FFF784BF38BD00BF0100024006
:101D900000000240024B1A6801321A60704700BF0F
:101DA000E88AFF1F08B50B4C2368580301D501F0E2
:101DB00089F92368590501D500F0D8FC23681A0574
:101DC00001D501F031F82368DB04ECD502F068FAA4
:101DD000E9E700BF3480044008B5FFF7E3FF704730
:101DE000024A136818441060184670476889FF1F3C
:101DF000EFF313839BB9EFF3108098B9EFF30583EA
:101E000023B10F2B04D9084A985C01E04FF480708D
:101E1000EFF311833BB1834238BF184670474FF050
:101E2000FF30704718467047F0E300E0044B054967
:101E300000221A600A60044A106010221A6070477B
:101E400014D0034004D0034000D00340212810B533
:101E500018D80D4A52F8303093F880423CB1012234
:101E600011B183F8802010BD83F8002110BD02EB72
:101E7000C00043681A6811B142F0030201E022F089
:101E800002021A6010BD00BF505D0000212806D874
:101E9000044B53F8303093F80002C0B27047002072
:101EA000704700BF505D0000212810B537D81C4A8C
:101EB00002EBC00301295B68144601D004290FD14D
:101EC00054F83020012082F880024FF4A2721A6088
:101ED0001A6804290CBF42F0200222F020021DE003
:101EE00052F83020002082F8800211B18A1E012AA7
:101EF00012D84FF4807202291A6003D11A6842F096
:101F000003020BE003290AD11A6842F002021A60A8
:101F10001A6822F0010201E040F203121A6010BDBB
:101F2000505D0000282838B5604A04460B4611D1A0
:101F300012780B2A04D8C2F10C0201FA02F304E071
:101F40000C2A1CBF0C3A41FA02F31846BDE838408F
:101F5000FFF784BE11780125002B05FA01F2D8BFE6
:101F6000002102DD934205D32946FFF76FFF20468B
:101F7000294697E00338C2B2012A01D84C4A06E04C
:101F8000202C01D0192C01D14A4A00E04A4A12689B
:101F900002FB0332CA401D287BD8DFE800F0575F00
:101FA0004E337A7A212A7A7A7A7A7A7A7A7A7A3CEB
:101FB000450F187A707A7A7A7A7A7A673F4B1A6084
:101FC00003F5973340F2444203F5FA735FE03C4B6C
:101FD0001A6003F5973340F2444203F5F87356E074
:101FE000384B1A6003F5973340F2444203F5F67319
:101FF0004DE0354B1A6003F5973340F2444203F548
:10200000F47344E0314B1A6003F59F3340F24442CD
:1020100003F5F0733BE02E4B1A6003F59F3340F25B
:10202000444203F5EE7332E02A4B1A6003F59F3306
:1020300040F2444203F5EC7329E0274B1A6003F5A4
:102040009F3340F2444203F5EA7320E0234B1A60C9
:1020500003F580334FF45172203318E0204B1A609F
:1020600003F580334FF451721C3310E01D4B1A609E
:10207000A3F5DB234FF45172A3F5F96307E01A4B84
:102080001A60A3F5DB234FF45172A3F2CC731A60EC
:1020900038BD7F2B2046D4BF00210121FFF7D6FE9B
:1020A00020460121BDE83840FFF7FEBE6C89FF1FC6
:1020B0000890034008800B400880034010800340D4
:1020C0001880034020800340288003403080034074
:1020D0003880034040800340488003401090034014
:1020E0001890034010800B4018800B4072B60B4BC9
:1020F0000B491A680B4B1B68096862B6490102D587
:10210000322A88BF0133C2F5BB4218213F32B2FBED
:10211000F1F24FF47A7000FB0320704718E000E002
:1021200004ED00E0E88AFF1F38B50446FFF7DEFF44
:10213000054624B938BD013C0AD005F57A75FFF78C
:10214000D5FF401BB0F57A7FF5D201F0D5FDF6E75B
:1021500038BDFFFF204B4FF4000210B51A604FF05E
:1021600080721A604FF000721A604FF080621A603D
:102170004FF000621A60194B194A1A4C00204BF6B6
:10218000FF71186059602823136093601361936195
:1021900013629362136393630822226004F58054F0
:1021A000043420606160A360236144F8042C04F5CA
:1021B000FE2420600C4801600C490B608B600C4BC6
:1021C0001A60FFF715FC4FF4C870FFF7ADFFBDE8CC
:1021D000104001F075BA00BF08E100E00480034040
:1021E0000C8003400080034008800B400C800B40B3
:1021F00000800B40234B1A6842F480621A60224A26
:1022000000231370214A1370214A1370214A13705E
:10221000214A1370214B1B782BB1152B07D140F2AB
:1022200013321F4B02E01F4B40F213321A601E4B59
:102230001B78012B05D0052B07D14FF451721B4B96
:1022400002E01B4B4FF451721A601A4BC0F3443238
:102250001A70C0F347125A700221042200F01F00C6
:1022600098729A70D9745A7588221A743C22DA705E
:10227000114B40226FF44A711A700B444FF4005214
:102280001A60704734800440738BFF1FF18AFF1F70
:102290007C8BFF1F748BFF1FF08AFF1F328BFF1F89
:1022A00018C0044040A004406D89FF1F1CC00440BA
:1022B00044A0044000A006402DE400E0134A9378B7
:1022C00000F0030103F0EC030B43410748BF43F068
:1022D0001003937000F00F03042B0C4903D18B798A
:1022E00043F040038B715379C20603F0EF03074AB2
:1022F00048BF43F0100353719379810603F0EF0355
:1023000048BF43F010039371704700BF00A0064020
:1023100008B5114B1B685B0500D408BD0F4B1A783C
:1023200002F0FF0312B101F0E7FCF7E70C4A4FF4AB
:10233000005111600B4A0C49D37040F203120A603D
:102340004A600A4A13700A4A13700A4B1B680BB1A1
:1023500001221A7008BD00BF34800440F08AFF1FBC
:1023600084E100E000A0064040A00440738BFF1F02
:10237000F18AFF1FEC8AFF1F38B50446094B1B7812
:1023800003F0FF05002BF9D120460121FFF78CFD5A
:1023900020462946FFF75AFD034B53F83420034BE0
:1023A0001A6038BDF08AFF1F505D0000788BFF1F58
:1023B00010B509B140F08000144A137898421446D1
:1023C00022D0134A126852051DD503F07F03012B5A
:1023D00004D0052B05D100220E4B01E00E4B00224C
:1023E0001A60002900F07F020CBF44236023012AF9
:1023F00005D0052A07D143F44073064A02E0064A95
:1024000043F440731360207010BD00BF6D89FF1F3F
:10241000348004401CC0044044A004400E4A137899
:10242000984218D00D490968490513D52BB1152BD1
:1024300005D10B4B0021196001E00A490B6028B15E
:10244000152807D140F21331054B02E0054B40F24D
:102450001331196010707047328BFF1F34800440B5
:1024600018C0044040A004400D4A38B5146814F464
:1024700080624FF0000410D021280A4D0AD80A4A81
:10248000012152F830302B60FFF70EFD2B681C70D5
:10249000012038BD2C60204638BD104638BD00BF35
:1024A00034800440EC8AFF1F505D00000E4B1B6817
:1024B00013F4806316D012280C4B03D140F2023182
:1024C0000B4A04E0142809D10A4A40F20231116093
:1024D0005A7B42F001025A73012070475A7B02F086
:1024E000FE025A73002070473480044000A006406A
:1024F0000CA0044014C00440F8B51D4B1B685A05DD
:10250000064633D51B4B1B680BB101221A701A4BC0
:102510001C780134402C1F4628BF0024174D2B780F
:10252000A34218D1FFF764FC40280FDC144A13794A
:102530001B06F3D52B7813490133402B28BF00230A
:10254000C95CDBB2C9B2D1712B70E7E7FF28E5DDCA
:1025500001F0D2FBE2E70B4BF6B21E550A4B01220B
:102560001A70074BE4B2BC223C70DA70F8BD00BFB1
:1025700034800440788BFF1F7C8BFF1F748BFF1F00
:1025800000A00640F28AFF1FF08AFF1F274B1B683E
:102590005A052DE9F04707468A4644D5244B1B6867
:1025A0000BB101221A703D4607EB0A039D4237D258
:1025B000DFF890801F4E98F8004096F800900134A4
:1025C000402C28BF00245FFA89F9A1451DD11A4B80
:1025D000BC22DA70FFF70CFC40280FDC164A137996
:1025E0001B060FD5337815490133402B28BF002334
:1025F000C95CDBB2C9B2D171337003E0FF2801DDE1
:1026000001F07AFB33784B45E4D00C4B15F8012BE5
:102610001A550B4B0122E4B21A7088F80040C3E748
:10262000054BBC22DA70BDE8F08700BF348004405F
:10263000788BFF1F748BFF1F00A00640F28AFF1FDC
:10264000F08AFF1F7C8BFF1F08B5034B1B7813B16B
:1026500001F052FBF9E708BDF08AFF1F064A074B5D
:102660001B781078DBB2C0B283422CBF3F3000F140
:10267000FF30C01A704700BF748BFF1F7C8BFF1F99
:10268000054B1878054B1B78C0B2DBB2984238BFB7
:102690004030C01A704700BF738BFF1FF18AFF1FC5
:1026A00010B5104B10491A780B78D2B2DBB29A42AF
:1026B00014D00133402B28BF00230C48DCB2C05C8F
:1026C0000C700B490968C0B251B19A4238BF403210
:1026D000D31A1A2B04DC00230B7010BD4FF0FF300F
:1026E00010BD00BF738BFF1FF18AFF1F338BFF1FCD
:1026F000EC8AFF1F084B1A78084B1B78DBB29A4212
:1027000007D00133402B28BF0023054AD05CC0B25C
:1027100070474FF0FF307047738BFF1FF18AFF1F28
:10272000338BFF1F0C4B1B685B0514D50B4BDA7802
:1027300002F0CB02DA7040225A74DA7842F03402A6
:10274000DA70074B1A78074BD2B21A70064B1B6827
:102750000BB100221A7070473480044000A006407C
:10276000F18AFF1F738BFF1FEC8AFF1F30B5374BB9
:102770001A7912F0300F31D072B69A7D02F0FF0054
:1027800022B9DA7940225A7462B627E062B6304A3A
:10279000304913780978DBB2C9B214462B4AD5798F
:1027A0005A1C402A28BF00228A42EDB202D02A4B8E
:1027B0009D541346421E12F0FF00EFD1DAB2227090
:1027C000264A126852B18B4236BFC1F14001C1EBBB
:1027D00003035B18272BC4BF012313701B4BD9784D
:1027E000C9B20C0620D51B7918061DD51C4B1D4AF5
:1027F0001D781378EDB2DBB21046AB420CD0134A11
:102800000133402B1479184C28BF0023E45CE4B258
:10281000D471127D072AF0D9DBB203700B4B1A7901
:10282000120644BF7C22DA704B060ED5074B1A798C
:1028300012F0400F194608D00C4B00221A700C4BB6
:102840001B6803B11A703C23CB7030BD00A006405A
:10285000738BFF1FF18AFF1F338BFF1FEC8AFF1F53
:102860007C8BFF1F748BFF1FF28AFF1FF08AFF1FF4
:10287000788BFF1F234B1A6842F400621A60224AC9
:1028800000231370214A1370214A1370214A1370D8
:10289000214A1370214B1B78092B05D01A2B07D125
:1028A00040F213321E4B02E01E4B40F213321A600C
:1028B0001D4B1B780A2B05D01F2B07D14FF45172EB
:1028C0001A4B02E01A4B4FF451721A60194BC0F3C5
:1028D00044321A70C0F347125A7000F01F000422ED
:1028E000022198729A70D9745A7588221A743C22FF
:1028F000DA70114B40221A70A3F22B334FF40042CE
:102900001A60704734800440EE8BFF1F858BFF1FD9
:10291000F48BFF1FEF8BFF1F848BFF1F6E89FF1F40
:1029200004D004400CB004406F89FF1F00D0044065
:1029300010B0044000B006402FE400E0134A937842
:1029400000F0030103F0EC030B43410748BF43F0E1
:102950001003937000F00F03042B0C4903D18B7903
:1029600043F040038B715379C20603F0EF03074A2B
:1029700048BF43F0100353719379810603F0EF03CE
:1029800048BF43F010039371704700BF00B006408A
:1029900008B51E4B1B681B0500D408BD1C4B1B78DB
:1029A00003F0FF0213B101F0A7F9F7E7194B4FF459
:1029B00000411960184BDA70184B1B78092B05D0B1
:1029C0001A2B07D140F20312154B02E0154B40F2CF
:1029D00003121A60144B1B7803F07F030A2B05D0F7
:1029E0001F2B07D140F20312104B02E0104B40F2B4
:1029F00003121A600F4A002313700F4A13700F4B13
:102A00001B680BB101221A7008BD00BF348004405E
:102A1000848BFF1F84E100E000B006406E89FF1F39
:102A200004D004400CB004406F89FF1F00D0044064
:102A300010B00440EE8BFF1F858BFF1F808BFF1FA4
:102A400038B50446094B1B7803F0FF05002BF9D17C
:102A500020460121FFF728FA20462946FFF7F6F91C
:102A6000034B53F83420034B1A6038BD848BFF1F8F
:102A7000505D0000F08BFF1F10B509B140F08000E1
:102A8000144A13789842144622D0134A1268120549
:102A90001DD503F07F030A2B04D01F2B05D1002284
:102AA0000E4B01E00E4B00221A60002900F07F025D
:102AB0000CBF442360230A2A05D01F2A07D143F400
:102AC0004073064A02E0064A43F4407313602070E4
:102AD00010BD00BF6F89FF1F3480044000D0044048
:102AE00010B004400F4A137898421AD00E49096872
:102AF000090515D5092B04D01A2B05D100210B4B44
:102B000001E00B4B00211960092805D01A2807D1D4
:102B100040F21331054B02E0054B40F213311960CE
:102B2000107070476E89FF1F3480044004D0044049
:102B30000CB004400D4A38B5146814F400624FF02C
:102B4000000410D021280A4D0AD80A4A012152F85F
:102B500030302B60FFF7A8F92B681C70012038BDBE
:102B60002C60204638BD104638BD00BF348004407C
:102B7000808BFF1F505D00000B4B1B6813F400633C
:102B800010D01728094B09D1094A40F202311160CF
:102B90005A7B42F001025A73012070475A7B02F0BF
:102BA000FE025A73002070473480044000B0064093
:102BB00008B00440F8B51D4B1B681A05064633D50E
:102BC0001B4B1B680BB101221A701A4B1C78013485
:102BD000282C1F4628BF0024174D2B78A34218D15C
:102BE000FFF706F940280FDC144A13791B06F3D5CA
:102BF0002B7813490133282B28BF0023C95CDBB293
:102C0000C9B2D1712B70E7E7FF28E5DD01F074F858
:102C1000E2E70B4BF6B21E550A4B01221A70074B26
:102C2000E4B2BC223C70DA70F8BD00BF34800440CE
:102C3000F08BFF1FF48BFF1FEF8BFF1F00B00640D0
:102C4000868BFF1F848BFF1F274B1B681A052DE9FE
:102C5000F04707468A4644D5244B1B680BB1012236
:102C60001A703D4607EB0A039D4237D2DFF8908089
:102C70001F4E98F8004096F800900134282C28BF89
:102C800000245FFA89F9A1451DD11A4BBC22DA70E4
:102C9000FFF7AEF840280FDC164A13791B060FD554
:102CA000337815490133282B28BF0023C95CDBB2D8
:102CB000C9B2D171337003E0FF2801DD01F01CF8C7
:102CC00033784B45E4D00C4B15F8012B1A550B4BC0
:102CD0000122E4B21A7088F80040C3E7054BBC2219
:102CE000DA70BDE8F08700BF34800440F08BFF1F2E
:102CF000EF8BFF1F00B00640868BFF1F848BFF1FEA
:102D0000F48BFF1F08B5034B1B7813B100F0F4FFE1
:102D1000F9E708BD848BFF1F064A074B1B78107824
:102D2000DBB2C0B283422CBF273000F1FF30C01AA3
:102D3000704700BFEF8BFF1FF48BFF1F054B187808
:102D4000054B1B78C0B2DBB2984238BF4030C01A86
:102D5000704700BFEE8BFF1F858BFF1F10B5104B18
:102D600010491A780B78D2B2DBB29A4214D00133F0
:102D7000402B28BF00230C48DCB2C05C0C700B4910
:102D80000968C0B251B19A4238BF4032D31A1A2BE7
:102D900004DC00230B7010BD4FF0FF3010BD00BFEE
:102DA000EE8BFF1F858BFF1FAE8BFF1F808BFF1FDE
:102DB000084B1A78084B1B78DBB29A4207D00133D4
:102DC000402B28BF0023054AD05CC0B270474FF0AB
:102DD000FF307047EE8BFF1F858BFF1FAE8BFF1FF1
:102DE0000C4B1B681B0514D50B4BDA7802F0CB0299
:102DF000DA7040225A74DA7842F03402DA70074B03
:102E00001A78074BD2B21A70064B1B680BB100221E
:102E10001A7070473480044000B00640858BFF1F55
:102E2000EE8BFF1F808BFF1F30B5374B1A7912F0E6
:102E3000300F31D072B69A7D02F0FF0022B9DA79F4
:102E400040225A7462B627E062B6304A304913789D
:102E50000978DBB2C9B214462B4AD5795A1C402AEC
:102E600028BF00228A42EDB202D02A4B9D5413465D
:102E7000421E12F0FF00EFD1DAB22270264A126829
:102E800052B18B4236BFC1F14001C1EB03035B1865
:102E9000272BC4BF012313701B4BD978C9B20C0672
:102EA00020D51B7918061DD51C4B1D4A1D7813789B
:102EB000EDB2DBB21046AB420CD0134A0133282BE3
:102EC0001479184C28BF0023E45CE4B2D471127D5D
:102ED000072AF0D9DBB203700B4B1A79120644BFF4
:102EE0007C22DA704B060ED5074B1A7912F0400F90
:102EF000194608D00C4B00221A700C4B1B6803B10A
:102F00001A703C23CB7030BD00B00640EE8BFF1F23
:102F1000858BFF1FAE8BFF1F808BFF1FF48BFF1F66
:102F2000EF8BFF1F868BFF1F848BFF1FF08BFF1F14
:102F3000F0B50C4B0C4C1A7842F0020504EBC506B8
:102F400082F00102706009481A700678002E0CBFEA
:102F50008827C82786F0010647EA0141067044F831
:102F60003510F0BD608CFF1F0080FF1FD88CFF1F45
:102F7000431E032B10B510D872B6094A52F823002D
:102F800048B1416842F82310064A018832F81340DC
:102F9000611A22F8131062B610BD002010BD00BFE8
:102FA000508CFF1FC48DFF1F013803280AD872B64A
:102FB000054B53F82030002013B101305B68FBE76C
:102FC00062B6704700207047A48CFF1F10B572B620
:102FD0000123174A1A4412F8012C12071CD5990034
:102FE000144A52F831402CB902EB431308305860B0
:102FF000114B09E041F0010152F8314064B902EB94
:10300000C103083058600D4B42F831300C4B1A7830
:10301000013A1A7062B610BD0133052BD9D162B6E0
:10302000074B00221A70BDE8104000F0A7BB00BF9C
:10303000905E00000080FF1F88004000C800400034
:10304000CE8CFF1F431E032B30B532D8194A4001E6
:1030500040F01000104472B6174CE25C032A09D805
:10306000DFE802F0160218050830022213E00830EB
:10307000042210E01148124A50F8234014B940F8D5
:10308000231002E052F82300416042F823100FE0C1
:10309000032200E00522E25410F0080F01F10803BA
:1030A0000A8843600CBF8823C82343EA02430360B5
:1030B00062B630BD0080FF1F0C8CFF1FA48CFF1F69
:1030C000B48CFF1F2DE9F84FAB4F3C78E4B214F0FD
:1030D000040F3D4619D0A94B1B78A3B1A84A11781B
:1030E00001F0FF0321B1013BDBB2137003B900BE55
:1030F000A44A117801F0FF0329B1013BDBB2137040
:103100000BB900F067FC04233B7004F0080303F0E4
:10311000FF02002B00F067829B4B9C4C1A78D2B2C6
:1031200015094FEA920840F0E48104EBC80359689E
:1031300054F83830C3F38303013B0C2B00F2D681E3
:10314000DFE813F095019501D401D401D401D40135
:10315000D401D401B001D401D401D4010D008C4DAF
:103160000A684B688B486B6001218B4B44F8383000
:103170002A60DFF85082017092B240F28160002331
:103180008242C8F800302361A36117D8B2F5D06F2E
:1031900080F01E81B2F5817F00F0CF8006D8802AB2
:1031A00000F0BA80822A00F0BB8031E140F20233A5
:1031B0009A4200F0D180B2F5A06F1CE042F22100EB
:1031C000824200F051810ED8B2F5086F00F09E8067
:1031D000B2F5106F40F01C81684B6C4EAA781A70E3
:1031E00006F180090AE042F221218A4200F00881BA
:1031F00042F221339A4200F00F8109E1336A1B0643
:1032000003D5706A083800F0B9FA08364E45F5D192
:103210000026B146DFF8B0A156F80A0028B1D0F870
:1032200004B000F0ABFA5846F8E74AF806005B4BEA
:10323000DFF898A1F05056F80A0028B1D0F804B091
:1032400000F09CFA5846F8E7554B4AF80600F05053
:10325000544B23F81900544B19F80320023A032A5F
:1032600008D8DFE802F002040204002200E0012294
:1032700003F8092009F10109B9F1040F06F1040668
:10328000C8D14A4B00221A7001269A46484A494B37
:103290003244334412F8012C9B0012F0080F1A70CC
:1032A0004FEA860925D000F04BFA38B104EB4613FB
:1032B00008305860404B44F8393006E09AF8003046
:1032C00044F8390001338AF8003000F039FA49F047
:1032D000010338B104EBC302083050602E4A44F8B1
:1032E000332006E044F833009AF8003001338AF8BE
:1032F000003049F00202013649F003090023052E8F
:1033000044F8323044F83930C0D186E01B4B2B4CA6
:103310001B7823700B4683E0284C237063707EE09B
:10332000AA88042A74D8254C920023706370244B19
:103330009B5C9E0773D5217071E0AA8802F07F0222
:10334000042A65DC6B88002B62D191001C4A0A4478
:10335000117821F0020159E0AA8802F07F02042AC4
:1033600056DC6B88002B53D19100154A0A44117822
:1033700041F002014AE000BF80200740D78CFF1FC8
:10338000618CFF1FD98CFF1F902007400080FF1F1A
:10339000C48CFF1FD88CFF1FC8004000FC8BFF1F90
:1033A000B48CFF1FC48DFF1F0C8CFF1FCE8CFF1F22
:1033B000905E000030C8011088004000CF8CFF1FD5
:1033C000C0200740F88BFF1F508CFF1FA48CFF1FED
:1033D0006A88A9889F4B53F8084CA3F10C00BCB134
:1033E00033F80C6C964209D133F80A6C8E4205D141
:1033F000120A032A0CBF2378038911E00C33EAE791
:10340000954A1168954A1160A978954A117004E0AF
:10341000944B0F221A7027E000231C4600E0022381
:10342000EE88B34238BF1E46402E34BF3546402595
:1034300020462946FFF77CFD761B2C4403D1402D06
:1034400012D1354603E0402E34BF35464025204694
:103450002946FFF76DFD761B2C4401D1402D03D189
:10346000814AC8F8004016800122804B3DE0804B25
:103470001A8842F221039A4210D100237D4AC85C87
:1034800098540133072BF9D11368862B02D17A4B5C
:103490000F221A7000200146FFF74AFD774B44F8CF
:1034A000383023E0764E3568B5B1DFF8BC81B8F826
:1034B0000090B9F1400F34BF4C46402428462146C5
:1034C000FFF736FDC4EB09039BB2A8F800300BB937
:1034D000402C00D12B193360654B1A88B2F5A06FD0
:1034E00004D100225A709A78664B1A7001225F4B01
:1034F0006CE004EBC806013D736802F00802A3F11A
:103500000800EDB202F0FF01002A36D000F036F9D3
:103510005D485E4B50F82520EAB1516840F825100F
:1035200002F108017160595D03290BD8DFE801F051
:1035300002040608032104E0022102E0052100E064
:103540000421595516F0080F12880CBF8823C82390
:1035500043EA024342E05A5D032A07D8DFE802F05B
:1035600040400204002206E0012204E016F0080FA9
:103570000CBF022203225A5532E054F83820120CB4
:1035800023F8082C22B3DFF834E123F8061C43F8B3
:10359000041C5EF825303E4913B94EF8250002E0C0
:1035A00051F8253058603B4B41F8250033F8151091
:1035B0000A4423F8152000F0C3F810B108307060F9
:1035C00006E0354B44F838001A7801321A7007E0EB
:1035D0002A4B324A16F0080F08BF134644F8383019
:1035E00008233B7070E5E0071FD520492B482C4C81
:1035F00002230B702B4B1A702B4B186098602B48D2
:10360000D8601A619A615C60164B0D2018702848CA
:10361000FF2303702B700274264A1370264B9F22DF
:103620001A7001230B70BDE8F88F210604D50D4BED
:103630000D221A7080232B70A20705D51C4B1A7817
:10364000D2B21A7002232B70E30644BF10232B70F2
:10365000BDE8F88FA05E0000E88AFF1FD48DFF1F31
:10366000E88CFF1FC0200740CC8CFF1F9420074030
:10367000C48CFF1FCC8DFF1F618CFF1FC800400052
:10368000F88BFF1F98200740A48CFF1F0C8CFF1F96
:10369000FC8BFF1FC48DFF1FCE8CFF1F88004000D6
:1036A000108CFF1F608CFF1F0080FF1F648CFF1FAA
:1036B000882007408C20074084200740508CFF1F43
:1036C00008B500F055FE00221A4B0021D150981881
:1036D0000832882A4160F7D1174A106840F48020E8
:1036E000106002F528326832C3F307201070C3F36C
:1036F00007401B0E10751376FF2302F81C3C02F8DE
:10370000143C02F88C3C012302F8083C82F8641057
:1037100002F8183C094B70226FF450711A700B4478
:103720004FF400721A6003F1C04303F5C82310225E
:103730001A7008BD0080FF1F3480044049E400E097
:1037400072B60C4A1168B1FA81F30B2B02D962B63A
:10375000002070474FF00040D84021EA000111607E
:1037600062B6054948225343C8180022CA50426035
:10377000704700BF7089FF1F0086FF1F0C4B482257
:10378000C31AB3FBF2F30B2B11D80A4A127822B1F9
:10379000094A12780AB1FFF719BC72B6074A4FF00E
:1037A000004121FA03F311681943116062B67047B2
:1037B0000086FF1FCE8CFF1FD78CFF1F7089FF1F55
:1037C00010B5104C23686BB120684288531C02442A
:1037D000147A0288934212D3FFF7D0FF094B0022DC
:1037E0001A600DE0084B1B7813B94FF0FF3010BD85
:1037F0000320FFF7BDFB20600028E5D1F5E74380FB
:10380000204610BDE48CFF1FD78CFF1F10B50B4C5A
:10381000236813B123686BB902E0094B1B7813B915
:103820004FF0FF3010BD0320FFF7A2FB20600028FF
:10383000F0D1F5E75A881344187A10BDE48CFF1FC5
:10384000D78CFF1F044B9888044B1B681BB11A8848
:103850005B88D31A18447047C48DFF1FE48CFF1F88
:1038600010B5094B1B786BB1084C206818B1FFF7F5
:1038700085FF002323600320FFF77AFB10B1FFF7D9
:103880007DFFF8E710BD00BFD78CFF1FE48CFF1F42
:103890002DE9F8432D4E012307460C463370002CCA
:1038A0004FD02B4D2B68A9462BBB44F2A578294B52
:1038B0001B7803F0FF020BB9327015E00420FFF70C
:1038C00073FB072808D801233370FFF739FFC9F8C5
:1038D000000080B91D4B1870B8F101081E4B01D0D3
:1038E0001A782AB101221A704FF0FF30BDE8F88330
:1038F00000F002FADBE72968174A488800231370B2
:10390000C0F14002944238BF224600F1080C104436
:103910008C444880A41A934204D0F85C0CF803004D
:103920000133F8E71F444B883F2B06D940230B8017
:103930000420FFF787FB00232B60084B05221A7039
:10394000ADE734702046BDE8F88300BFDA8CFF1F76
:10395000DC8CFF1FD78CFF1FE08CFF1FD98CFF1F53
:1039600007B502AB012103F8010D1846FFF790FFE0
:1039700003B05DF804FBFFFF2DE9F041114B1B780C
:10398000F3B1114E114B3468114D01271F70984649
:103990004CB1002763882F70042023802146FFF755
:1039A00051FB376009E0FFF7CBFE014620B1042050
:1039B0002C70FFF747FB00E02F70002388F80030E1
:1039C000BDE8F081D78CFF1FDC8CFF1FDA8CFF1F56
:1039D000D98CFF1F38B50E4B1B7803F0FF05ABB930
:1039E0000C4C216831B14B880B800420FFF72AFB77
:1039F000256038BDFFF7A4FE014620B10420BDE8D4
:103A00003840FFF71FBB044B01221A7038BD00BFBE
:103A1000DA8CFF1FDC8CFF1FD98CFF1F08B5034B0E
:103A200001221A60024B1B68984708BD0C710340C5
:103A3000F08CFF1F08B5034B01221A60024B5B6834
:103A4000984708BD1C710340F08CFF1F08B5034B5D
:103A500001221A60024B9B68984708BD2C710340F5
:103A6000F08CFF1F08B5034B01221A60024BDB6884
:103A7000984708BD3C710340F08CFF1F054B1A6846
:103A800042F400021A60044B00221A60034B012228
:103A90001A7070473C80044000700340ED8CFF1F9B
:103AA000064B01221A6003F588333C331A6822F46E
:103AB00000021A60024B00221A7070470070034027
:103AC000ED8CFF1FF0B54578134C144F2B011A19DC
:103AD0004260134A9E188660066947F825600025F3
:103AE0009D501951032199504378427B4433DBB2F6
:103AF000037303F1604303F5644301211A70027BF1
:103B000053119B0003F1604303F5614302F01F0270
:103B100001FA02F21A60F0BD00710340F08CFF1F41
:103B200008710340F8B50C4B1B7806460F460BB9DD
:103B3000FFF7A4FF0024094D625DE3B23AB93046B5
:103B400073703946FFF7BEFF01202855F8BD0134D8
:103B5000042CF0D10020F8BDED8CFF1FE98CFF1F75
:103B60008268002310B51360027B0121541102F01A
:103B70001F0201FA02F2084941F82420074A41785D
:103B80005354D15C31B90133042BFAD1BDE8104054
:103B9000FFF786BF10BD00BF80E100E0E98CFF1F8A
:103BA000037870B504460D4616461BB1FFF7D8FFE3
:103BB00000232370256120463146FFF7B3FF10B183
:103BC0000123237000E02070207870BD037810B5C9
:103BD00004460BB1FFF7C4FF0023237010BDFFFFA5
:103BE00007B5064B1B88ADF80430036801A95B6874
:103BF0000222984703B05DF804FB00BF605E00003E
:103C000073B50C4B1A680092009D04461E4623684B
:103C10002046DB68984700280ADA00F06DF8336820
:103C20000193019BA2685B1B9342F0D34FF0FF30DE
:103C300002B070BDE88AFF1F81607047F8B5054685
:103C40000E4617460024BC420AD02846FFF7D8FF8C
:103C5000002802DA01232B7302E030550134F2E729
:103C60002046F8BD2DE9B847074689469046B3B1CE
:103C700003F1FF3A1446C8EB040555450CD238460B
:103C8000FFF7BEFF484507D0002802DA01233B7347
:103C900002E004F8010BEEE70023237000E01D466C
:103CA0002846BDE8B88708B5FDF700F8FDF7A2F98A
:103CB00000F022F8FAE7FFF7C5BDFFF781BDFFF777
:103CC000A5BDFFF759BEFFF7CBBD0846FFF748BEBD
:103CD00008461146FFF7DCBD7047FFFF044B00228A
:103CE0001A714FF47A711A73024A99601A60704718
:103CF000008DFF1F705E000010B50E4C2378BBB91D
:103D000001232370FFF79EFD08B1FFF7E5FFFEF7E3
:103D1000B7FC08B100F064FBFFF710F808B100F041
:103D20006FFB00F059FA08B100F0F3FB0023237099
:103D300010BD00BF108DFF1F844641EA000313F041
:103D400003036DD1403A41D351F8043B40F8043BA2
:103D500051F8043B40F8043B51F8043B40F8043B65
:103D600051F8043B40F8043B51F8043B40F8043B55
:103D700051F8043B40F8043B51F8043B40F8043B45
:103D800051F8043B40F8043B51F8043B40F8043B35
:103D900051F8043B40F8043B51F8043B40F8043B25
:103DA00051F8043B40F8043B51F8043B40F8043B15
:103DB00051F8043B40F8043B51F8043B40F8043B05
:103DC00051F8043B40F8043B403ABDD2303211D3A5
:103DD00051F8043B40F8043B51F8043B40F8043BE5
:103DE00051F8043B40F8043B51F8043B40F8043BD5
:103DF000103AEDD20C3205D351F8043B40F8043BA5
:103E0000043AF9D2043208D0D2071CBF11F8013BA2
:103E100000F8013B01D30B8803806046704700BF68
:103E2000082A13D38B078DD010F003038AD0C3F177
:103E30000403D21ADB071CBF11F8013B00F8013B59
:103E400080D331F8023B20F8023B7BE7043AD9D318
:103E5000013A11F8013B00F8013BF9D20B780370ED
:103E60004B7843708B7883706046704710B50023A1
:103E7000B0FBF2F402FB1400092894BF3030373055
:103E8000C0B2C85420460CB10133F1E7CA185470CF
:103E900022469A4206DA885CCC5C8C54C8540132C3
:103EA000013BF6E7084610BD174B1A6842F48052F2
:103EB0001A60164A00231370154A1370154A1370BE
:103EC000154A1370154A1370154A40F213311160E8
:103ED0004FF451715160134AC0F344311170C0F373
:103EE000471100F01F0051709072937013742C23CF
:103EF000D3700D4B40226FF44B711A700B444FF48A
:103F000000321A60704700BF34800440828DFF1F6A
:103F1000198DFF1F888DFF1F838DFF1F188DFF1FB9
:103F200008C0044000C0064031E400E0134A937822
:103F300000F0030103F0EC030B43410748BF43F0DB
:103F40001003937000F00F03042B0C4903D18B79FD
:103F500043F040038B715379C20603F0EF03074A25
:103F600048BF43F0100353719379810603F0EF03C8
:103F700048BF43F010039371704700BF00C0064074
:103F800008B5114B1B68DB0400D408BD0F4B1A7831
:103F900002F0FF0312B1FFF7AFFEF7E70C4A4FF450
:103FA000003111600B4A0C49D37040F203120A60D1
:103FB0004A600A4A13700A4A13700A4B1B680BB115
:103FC00001221A7008BD00BF34800440188DFF1F05
:103FD00084E100E000C0064008C00440828DFF1F5D
:103FE000198DFF1F148DFF1F38B50446094B1B7830
:103FF00003F0FF05002BF9D120460121FDF754FF06
:1040000020462946FDF722FF034B53F83420034B8B
:104010001A6038BD188DFF1F505D0000848DFF1F92
:1040200010B509B140F080000E4A1378984217D0BD
:104030000D4C2468E40412D503F07F03082B02D151
:104040000A4B00241C60002900F07F030CBF4421B0
:104050006021082B03D1054B41F4407119601070A9
:1040600010BD00BF7489FF1F348004400CC00440A1
:104070007047FFFF0D4A38B5146814F480524FF0B2
:10408000000410D021280A4D0AD80A4A012152F80A
:1040900030302B60FDF708FF2B681C70012038BD05
:1040A0002C60204638BD104638BD00BF3480044027
:1040B000148DFF1F505D00000B4B1B6813F48053E1
:1040C00010D00E28094B09D1094A40F20231116083
:1040D0005A7B42F001025A73012070475A7B02F06A
:1040E000FE025A73002070473480044000C006402E
:1040F00004C00440F8B51D4B1B68DA04064633D5EE
:104100001B4B1B680BB101221A701A4B1C7801342F
:10411000282C1F4628BF0024174D2B78A34218D106
:10412000FDF766FE40280FDC144A13791B06F3D511
:104130002B7813490133282B28BF0023C95CDBB23D
:10414000C9B2D1712B70E7E7FF28E5DDFFF7D4FD99
:10415000E2E70B4BF6B21E550A4B01221A70074BD1
:10416000E4B2AC223C70DA70F8BD00BF3480044089
:10417000848DFF1F888DFF1F838DFF1F00C00640A9
:104180001A8DFF1F188DFF1F38B504464518AC4225
:1041900004D014F8010BFFF7ADFFF8E738BDFFFFBF
:1041A00008B5034B1B7813B1FFF7A6FDF9E708BD6F
:1041B000188DFF1F064A074B1B781078DBB2C0B280
:1041C00083422CBF273000F1FF30C01A704700BF78
:1041D000838DFF1F888DFF1F054B1878054B1B78BB
:1041E000C0B2DBB2984238BF4030C01A704700BF3F
:1041F000828DFF1F198DFF1F10B5104B10491A78C3
:104200000B78D2B2DBB29A4214D00133402B28BFD4
:1042100000230C48DCB2C05C0C700B490968C0B2CA
:1042200051B19A4238BF4032D31A1A2B04DC002312
:104230000B7010BD4FF0FF3010BD00BF828DFF1F0F
:10424000198DFF1F428DFF1F148DFF1F084B1A7819
:10425000084B1B78DBB29A4207D00133402B28BFB2
:104260000023054AD05CC0B270474FF0FF30704762
:10427000828DFF1F198DFF1F428DFF1F054B1A787E
:10428000054BD2B21A70054B1B680BB100221A7095
:10429000704700BF198DFF1F828DFF1F148DFF1FF8
:1042A00010B5294B1A79920620D5284AD879137867
:1042B00027490133402B097828BF00238B42C0B225
:1042C00003D02449C854D9B21170234A116869B186
:1042D000224A1278D2B2934236BFC2F14002C2EBF8
:1042E00003039B18272BC4BF01230B70164AD178F8
:1042F000C9B20C0616D51379180613D5184B1748F2
:104300001C780378DBB29C4202D16C23D37009E0A5
:104310000133282B28BF0023124CE45CDBB2E4B24B
:10432000D47103704B060ED5074B1A7912F0400F6B
:10433000194608D00C4B00221A700C4B1B6803B1B5
:104340001A702C23CB7010BD00C00640828DFF1F59
:10435000198DFF1F428DFF1F148DFF1F838DFF1FBF
:10436000888DFF1F1A8DFF1F188DFF1F848DFF1F63
:104370001FB572B6154B70221A70154A4121117083
:104380000F2102F8011C80221A701A781206FCD53F
:10439000104B186862B6104B984298BF0A2301ACC4
:1043A00098BF584321460A22FFF760FD0023E15CD5
:1043B0000A4A29B102EB430001330A2B4180F6D1AE
:1043C00001335B00137004B010BD00BF0000024059
:1043D00007000240080002407F969800FE89FF1FF8
:1043E0007047FFFF044B00221A714FF47A711A7361
:1043F000024A99601A6070478C8DFF1FF8520000C6
:104400007047FFFF044B00221A714FF47A711A7340
:10441000024A99601A6070479C8DFF1F5853000034
:1044200008B50368C9B21B68984708BD08B503689A
:10443000C9B21B68984708BD08B50368C9B21B68B4
:10444000984708BD08B50368C9B21B68984708BDFE
:104450004B0803F1377000F5D840B0FBF1F0FFF7DF
:1044600023BD10B54B0803F1377000F5D840144652
:10447000B0FBF1F0FFF718FD2046BDE81040FFF754
:1044800055BDFFF77DBD0846FFF7AEBD0846FFF7F7
:10449000EFBD08461146FFF7C3BD08B50846FFF754
:1044A000E9FD003018BF012008BD08B50846FFF738
:1044B00003FE003018BF012008BDFFF78DBEFFF7D7
:1044C000C5BEFFF799BEFFF76BBEFFF7D7BEFFF77C
:1044D00071BE08B50846FFF70DFE012008BD08B5FE
:1044E0000846FFF707FE012008BD10B50846144630
:1044F0001146FFF749FE204610BD38B508460D4667
:1045000000F0A7FB044621462846FFF73DFE204663
:1045100038BD7047044B00221A714FF47A711A7338
:10452000024A99601A607047AC8DFF1FF05E000070
:1045300080F0004002E000BF81F0004142001FBF58
:104540005FEA410392EA030F7FEA226C7FEA236C61
:104550006AD04FEA1262D2EB1363C1BFD218414056
:1045600048404140B8BF5B42192B88BF704710F0EC
:10457000004F40F4000020F07F4018BF404211F08F
:10458000004F41F4000121F07F4118BF494292EAF7
:10459000030F3FD0A2F1010241FA03FC10EB0C0023
:1045A000C3F1200301FA03F100F0004302D54942B0
:1045B00060EB4000B0F5000F13D3B0F1807F06D35D
:1045C00040084FEA310102F10102FE2A51D2B1F155
:1045D000004F40EBC25008BF20F0010040EA03004A
:1045E0007047490040EB000010F4000FA2F10102F7
:1045F000EDD1B0FA80FCACF1080CB2EB0C0200FA81
:104600000CF0AABF00EBC25052421843BCBFD040CE
:104610001843704792F0000F81F4000106BF80F448
:1046200000000132013BB5E74FEA41037FEA226C0B
:1046300018BF7FEA236C21D092EA030F04D092F0D6
:10464000000F08BF0846704790EA010F1CBF00200A
:10465000704712F07F4F04D1400028BF40F0004067
:10466000704712F100723CBF00F50000704700F087
:10467000004343F0FE4040F4000070477FEA2262AE
:1046800016BF08467FEA23630146420206BF5FEA7F
:10469000412390EA010F40F4800070474FF000037F
:1046A00004E000BF10F0004348BF40425FEA000C46
:1046B00008BF704743F0964301464FF000001CE0EE
:1046C00050EA010208BF70474FF000030AE000BF44
:1046D00050EA010208BF704711F0004302D5404282
:1046E00061EB41015FEA010C02BF844601460020F4
:1046F00043F0B64308BFA3F18053A3F50003BCFA0F
:104700008CF2083AA3EBC25310DB01FA02FC6344BB
:1047100000FA02FCC2F12002BCF1004F20FA02F2C2
:1047200043EB020008BF20F00100704702F12002B5
:1047300001FA02FCC2F1200250EA4C0021FA02F216
:1047400043EB020008BF20EADC7070474FF0FF0C1B
:104750001CEAD0521EBF1CEAD15392EA0C0F93EA16
:104760000C0F6FD01A4480EA010C400218BF5FEAB8
:1047700041211ED04FF0006343EA501043EA51112B
:10478000A0FB01310CF00040B1F5000F3EBF490025
:1047900041EAD3715B0040EA010062F17F02FD2A29
:1047A0001DD8B3F1004F40EBC25008BF20F001000C
:1047B000704790F0000F0CF0004C08BF49024CEA23
:1047C000502040EA51207F3AC2BFD2F1FF0340EAB5
:1047D000C250704740F400004FF00003013A5DDC26
:1047E00012F1190FDCBF00F000407047C2F1000267
:1047F000410021FA02F1C2F1200200FA02FC5FEA54
:10480000310040F1000053EA4C0308BF20EADC709D
:10481000704792F0000F00F0004C02BF400010F40F
:10482000000F013AF9D040EA0C0093F0000F01F0BC
:10483000004C02BF490011F4000F013BF9D041EADE
:104840000C018FE70CEAD15392EA0C0F18BF93EAE0
:104850000C0F0AD030F0004C18BF31F0004CD8D10A
:1048600080EA010000F00040704790F0000F17BF91
:1048700090F0004F084691F0000F91F0004F14D0D7
:1048800092EA0C0F01D142020FD193EA0C0F03D12F
:104890004B0218BF084608D180EA010000F0004032
:1048A00040F0FE4040F40000704740F0FE4040F40D
:1048B000400070474FF0FF0C1CEAD0521EBF1CEAAC
:1048C000D15392EA0C0F93EA0C0F69D0A2EB0302CA
:1048D00080EA010C49024FEA402037D04FF0805364
:1048E00043EA111143EA10130CF000408B4238BF29
:1048F0005B0042F17D024FF4000C8B4224BF5B1A37
:1049000040EA0C00B3EB510F24BFA3EB510340EA84
:104910005C00B3EB910F24BFA3EB910340EA9C0032
:10492000B3EBD10F24BFA3EBD10340EADC001B01A2
:1049300018BF5FEA1C1CE0D1FD2A3FF650AF8B4246
:1049400040EBC25008BF20F0010070470CF0004C53
:104950004CEA50207F32C2BFD2F1FF0340EAC2507E
:10496000704740F400004FF00003013A37E792F03F
:10497000000F00F0004C02BF400010F4000F013A9D
:10498000F9D040EA0C0093F0000F01F0004C02BF98
:10499000490011F4000F013BF9D041EA0C0195E701
:1049A0000CEAD15392EA0C0F08D142027FF47DAF9A
:1049B00093EA0C0F7FF470AF084676E793EA0C0F8A
:1049C00004D14B023FF44CAF08466EE730F0004C88
:1049D00018BF31F0004CCAD130F000427FF45CAF18
:1049E00031F000437FF43CAF5FE700BF4FEA400285
:1049F000B2F1FE4F0FD34FF09E03B3EB12620DD90D
:104A00004FEA002343F0004310F0004F23FA02F076
:104A100018BF404270474FF00000704712F1610F1D
:104A200001D1420205D110F0004008BF6FF00040F4
:104A300070474FF00000704703460846194600F0E3
:104A400001B8FFFF70B5064C06460D4613462CB163
:104A500031462A460220AFF3008070BD204670BD6B
:104A60000000000070B50E4B0E4DED1AAD10002485
:104A70001E46AC4204D056F8242090470134F8E793
:104A800001F0AEFA084D094BED1AAD1000241E4698
:104A9000AC4204D056F8242090470134F8E770BDAA
:104AA000EC5F0000EC5F000004600000EC5F0000C1
:104AB000814270B501D300230EE08C18A042FAD2D7
:104AC0008518134613F1FF3305D351426618294464
:104AD000F65CCE54F6E770BD934203D0CC5CC45470
:104AE0000133F9E770BDFFFF30B500293CD051F824
:104AF000042C0B1F1D49002AB8BF9B180A680C46DE
:104B000012B95A600B6030BD93420DD21968581823
:104B1000904203D15A581144426819605A60236088
:104B200030BD994203D80A4651680029F9D114686A
:104B300015199D420AD11B682344D018884213607E
:104B400012D10868034413604B680CE002D90C23AF
:104B5000036030BD18681C188C4203D10C6849688A
:104B6000204418605960536030BD00BFC08DFF1FE6
:104B700070B5CD1C25F0030508350C2D38BF0C256C
:104B8000002D06463FDB8D423DD3214B1C68184665
:104B90002146A1B10B685B1B0ED40B2B03D90B6014
:104BA000CC18CD501FE08C4202D1626802601AE03E
:104BB0004B6863600C4616E00C464968E9E7154C03
:104BC00023681BB9304600F027F82060294630469C
:104BD00000F022F8431C014615D0C41C24F0030445
:104BE00084420AD1256004F10B00231D20F0070048
:104BF000C31A0BD05A42E25070BD3046611A00F021
:104C00000BF80130EED10C233360002070BD00BFE3
:104C1000C08DFF1FBC8DFF1F38B5064C0023054615
:104C200008462360FDF7DCF8431C02D1236803B17A
:104C30002B6038BDD88DFF1F10B5044622460134C5
:104C40001378002BFAD1CC5CD4540133002CFAD168
:104C500010BD034613F8012B002AFBD1181A0138A6
:104C6000704730B5141E9BB0054604DA8B230360F1
:104C70004FF0FF301CE04FF4027200910491ADF848
:104C80000C2014BF04F1FF3121464FF6FF72029150
:104C90000591ADF80E2069461A461E9B00F09CF85F
:104CA000431CBCBF8B232B6014B1009B00221A70E5
:104CB0001BB030BD73B50093054B06460D46144638
:104CC000186831462A462346FFF7CBFF02B070BD75
:104CD000748AFF1FF8B5064614460D4621B91146E1
:104CE000BDE8F840FFF744BF1AB9FFF7FDFE2046C4
:104CF000F8BD00F0F4FAA0420ED230462146FFF78C
:104D000037FF074650B129462246FFF715F83046CF
:104D10002946FFF7E9FE01E02846F8BD3846F8BD10
:104D20002DE9F0478D68AB4281460C4692461F46FE
:104D300043D38B8913F4906F3DD026680969C1EB8A
:104D400006086669022206EB460696FBF2F608F1B3
:104D500001023A44964238BF16465B050FD53146EC
:104D6000FFF706FF054698B121694246FEF7E4FFCA
:104D7000A38923F4906343F08003A38113E03246B8
:104D8000FFF7A8FF054670B948462169FFF7ACFE5A
:104D90000C23C9F80030A38943F04003A3814FF0EE
:104DA000FF30BDE8F087256166614544C8EB060623
:104DB0002560A6603D46AF4200D23D462A462068A7
:104DC0005146FFF775FEA3685B1BA36023681D4473
:104DD00025600020BDE8F0872DE9F0439DB007462F
:104DE00003938B891C060D4616460CD50B6953B9E7
:104DF0004021FFF7BDFE2860286110B90C233B60FD
:104E0000C8E040236B610023099320238DF82930EB
:104E100030238DF82A3033461C4613F8012B1AB97B
:104E2000B4EB06090FD002E0252AF5D1F8E73846A1
:104E3000294632464B46FFF773FF013000F0A5804C
:104E4000099B4B4409932378002B00F09E8000239C
:104E50004FF0FF3204930793059206938DF8533079
:104E60001A9304F101094C464D4E21783046052233
:104E700000F026FA09F10109049B28B1861B0120E4
:104E8000B04003430493EEE7D90644BF20228DF8D7
:104E900053201A0744BF2B228DF8532022782A2A48
:104EA00002D0079B21460EE0039A111D1268039160
:104EB000002A01DB079204E0524243F0020307920A
:104EC000049301340AE00C4601312278303A092A71
:104ED00003D80A2000FB0323F5E7079323782E2B42
:104EE0001AD163782A2B0AD1039B1A1D1B680392DF
:104EF000002B04F10204B8BF4FF0FF330BE0611C3C
:104F000000230C4601312278303A092A03D80A20BE
:104F100000FB0323F5E70593224E21783046032258
:104F200000F0CEF930B1861B049B4020B040034313
:104F30000493013421781C488DF828100622661C41
:104F400000F0BEF988B1194B33B9039B073323F046
:104F500007030833039314E003AB0093384604A916
:104F60002A46134BAFF3008007E003AB00933846AB
:104F700004A92A460E4B00F08FF8B0F1FF3F80469F
:104F800003D0099B4344099345E7AB895B0601D4F1
:104F9000099801E04FF0FF301DB0BDE8F08300BF7D
:104FA000AC5F0000B25F0000B65F000000000000D0
:104FB000214D00002DE9F84315461F468A680B690C
:104FC000DDF820809A42A8BF13462B6091F8432059
:104FD00006460C460AB101332B602368990602D5B8
:104FE0002B6802332B60236813F006091DD094F858
:104FF00043302268003318BF012392061FD5E11801
:105000005A1C302081F84300224494F8451082F85D
:105010004310023313E03046394604F119020123EC
:10502000C047013007D009F10109E2682B68D31AA3
:105030009945F0DBDBE74FF0FF30BDE8F883304601
:10504000394604F14302C0470130F4D023682A688E
:10505000E16803F00603042B08BFC2EB01052369D6
:10506000A2680CBF25EAE57500259A42C4BFC3EBD0
:105070000203ED184FF00009A9450ADA3046394617
:1050800004F11A020123C0470130D4D009F101090B
:10509000F2E70020BDE8F8832DE9FF470E7E0C9D66
:1050A0006E2E80460C4691469A4601F1430000F070
:1050B000A58011D8632E22D009D8002E00F0AF8031
:1050C000582E40F0BF8081F845607B4A4FE0642E47
:1050D0001ED0692E1CD0B5E0732E00F0A48009D834
:1050E0006F2E2BD0702E40F0AD800B6843F0200364
:1050F0000B6038E0752E21D0782E34D0A2E02B68DA
:105100001A1D1B682A6001F1420781F842309DE0B8
:1051100022682B6812F0800F03D01A1D2A601D68C8
:1051200005E05106F9D51A1D2A60B3F90050002D8B
:1051300039DA2D236D4284F8433034E022682B683D
:1051400012F0800F03D01A1D2A601D6804E0520679
:10515000F9D51A1D2A601D88237E574A6F2B14BF6C
:105160000A2308231BE07823544A84F84530236837
:10517000296813F0800F01F104062E6001D00D683C
:1051800002E05F06FBD50D88DE0744BF43F0200335
:1051900023601DB9236823F020032360102300211E
:1051A00084F8431001E0444A0A236668A660002E92
:1051B00003DB216821F00401216005B96EB104F11F
:1051C0004201B5FBF3F603FB16550F46555D01F89A
:1051D00001593546002EF4D100E00746082B0AD1CC
:1051E0002368DD0707D5626823699A4203DC302310
:1051F00007F8013C013FC01B20612CE009682B68C7
:10520000626911F0800F04D0191D29601B681A60B3
:1052100005E04906F8D5191D29601B681A8000238E
:105220002361074617E02B681A1D2A601F6838465D
:10523000FFF70FFD63682061984288BF23612369EF
:10524000636005E004F1420784F8426001232361B2
:10525000002384F84330CDF800A04046214603AA3D
:105260004B46FFF7A7FE013002D14FF0FF301FE0A1
:10527000404649463A462369D0470130F5D0236875
:105280009B0705D4E068039B9842B8BF18460FE01F
:105290000025E268039BD31A9D42F3DA4046494653
:1052A00004F119020123D0470130DED00135F0E7C7
:1052B00004B0BDE8F08700BFBD5F0000CE5F000016
:1052C00010B5C9B202449042034606D01C788C4205
:1052D00000F10100F7D1184610BD002010BD51F8B3
:1052E000040C002802DA04390B58184404387047BB
:1052F0000000000000000000AD050000C505000032
:10530000950500009D05000099050000A10500001D
:10531000ED040000190500005D05000061050000B6
:10532000670500006D05000075050000850500009B
:10533000A5050000A9050000650400007104000037
:105340007D04000089040000D5050000B9050000B7
:105350000000000000000000AD060000C5060000CF
:10536000950600009D06000099060000A1060000B9
:10537000ED050000190600005D0600006106000052
:10538000670600006D060000750600008506000037
:10539000A5060000A906000095040000A104000075
:1053A000AD040000B9040000D5060000B9060000F5
:1053B0000000000000000000AD050000C505000071
:1053C000950500009D05000099050000A10500005D
:1053D0000105000039050000ED0600006105000030
:1053E000670500006D0500007505000085050000DB
:1053F000A5050000A9050000650400007104000077
:105400007D04000089040000D5050000B9050000F6
:105410000000000000000000AD060000C50600000E
:10542000950600009D06000099060000A1060000F8
:105430000106000039060000FB06000061060000BE
:10544000670600006D060000750600008506000076
:10545000A5060000A906000095040000A1040000B4
:10546000AD040000B9040000D5060000B906000034
:105470000201005472696D626C6520556C74726132
:10548000736F6E696320576972656C65737320531F
:105490006E6F77204465707468204761756765207A
:1054A0002D2056657200324200312E3620392F32BF
:1054B000312F313600417661696C61626C65204341
:1054C0006F6D6D616E64733A0041202D20476574E5
:1054D0002076657273696F6E20696E666F726D619A
:1054E00074696F6E0042202D205265626F6F7420C8
:1054F0005465656E73792043505520616E64205861
:1055000042656520526164696F0043202D2043612C
:105510006C69627261746520736E6F772064657068
:1055200074682073656E736F722061742063757286
:1055300072656E742064697374616E6365004420E3
:105540002D204765742063616C69627261746564C3
:1055500020736E6F7720646570746820286D6D29E4
:105560000047202D204765742073617665642063B1
:10557000616C6962726174696F6E2076616C7565C9
:1055800020286D6D290052202D2047657420736EF0
:105590006F772064657074682073656E736F722016
:1055A00072616E676520286D6D2900537878787870
:1055B000202D20536574206D616E75616C206361D0
:1055C0006C6962726174696F6E2064697374616E74
:1055D0006365207878787820286D6D290054202D17
:1055E0002047657420626174746572792063686114
:1055F00072676572207374617475733A002020209D
:105600002025730A00323A20446F6E65204368619A
:105610007267696E672C20313A204368617267694E
:105620006E672C20303A204E6F7420436861726799
:10563000696E670056202D2047657420626174747E
:1056400065727920766F6C7461676520283130301F
:105650007829003F202D204C6973742061766169A0
:105660006C61626C6520636F6D6D616E6473005B6D
:1056700052434D5F535253315D202D2053746F7050
:10568000204D6F64652041636B6E6F776C65646756
:1056900065204572726F72205265736574005B52AB
:1056A000434D5F535253315D202D204D444D2D41CC
:1056B00050205265736574005B52434D5F535253E3
:1056C000315D202D20536F667477617265205265BD
:1056D000736574005B52434D5F535253315D202D0F
:1056E00020436F7265204C6F636B75702045766543
:1056F0006E74205265736574005B52434D5F535264
:1057000053305D202D20506F7765722D6F6E2052C3
:1057100065736574005B52434D5F535253305D2097
:105720002D2045787465726E616C2050696E205230
:1057300065736574005B52434D5F535253305D2077
:105740002D205761746368646F6728434F50292088
:105750005265736574005B52434D5F535253305D25
:10576000202D204C6F7373206F662045787465720E
:105770006E616C20436C6F636B20526573657400BF
:105780005B52434D5F535253305D202D204C6F735D
:1057900073206F66204C6F636B20696E20504C4CF9
:1057A000205265736574005B52434D5F5352533012
:1057B0005D202D204C6F772D766F6C7461676520AE
:1057C00044657465637420526573657400256325B0
:1057D00030342E34640A0031365F4D485A002D2D86
:1057E0002D2D2D2D2D2D2D2D2D2D2D2D2D2D2D2DE9
:1057F0002D2D2D2D2D2D2D2D2D2D2D2D2D2D2D2DD9
:105800002D2D2D2D2D2D2D2D005B52434D5F5352EF
:1058100053305D092D2053746F70204D6F646520E7
:1058200041636B6E6F776C65646765204572726F5C
:1058300072205265736574005B52434D5F5352533F
:10584000305D092D204D444D2D415020526573652A
:1058500074005B52434D5F535253305D092D20530A
:105860006F667477617265205265736574005B5270
:10587000434D5F535253305D092D20436F726520B5
:105880004C6F636B7570204576656E74205265733E
:105890006574005B52434D5F535253305D092D20B8
:1058A000506F7765722D6F6E205265736574005B63
:1058B00052434D5F535253305D092D204578746536
:1058C000726E616C2050696E205265736574005B66
:1058D00052434D5F535253305D092D20576174631D
:1058E00068646F6728434F502920526573657400C0
:1058F0005B52434D5F535253305D092D204C6F7303
:1059000073206F662045787465726E616C20436CFD
:105910006F636B205265736574005B52434D5F5338
:105920005253305D092D204C6F7373206F66204CED
:105930006F636B20696E20504C4C20526573657408
:10594000005B52434D5F535253305D092D204C6F25
:10595000772D766F6C746167652044657465637438
:10596000205265736574005B52434D5F5352533050
:105970005D092D2057616B65757020626974207315
:1059800065742066726F6D206C6F7720706F77651D
:1059900072206D6F646520005B534D435F504D4333
:1059A00054524C5D092D204C4C532065786974206D
:1059B000005B534D435F504D535441545D092D20BE
:1059C00043757272656E7420506F776572204D6FEB
:1059D00064652052554E005B534D435F504D535408
:1059E00041545D092D2043757272656E7420506FAD
:1059F000776572204D6F64652053544F50005B53A0
:105A00004D435F504D535441545D092D20437572F1
:105A100072656E7420506F776572204D6F646520DB
:105A2000564C5052005B534D435F504D53544154BC
:105A30005D092D2043757272656E7420506F776515
:105A400072204D6F646520564C5057005B534D4398
:105A50005F504D535441545D092D2043757272655A
:105A60006E7420506F776572204D6F646520564CC0
:105A70005053005B534D435F504D535441545D09A7
:105A80002D2043757272656E7420506F7765722099
:105A90004D6F6465204C4C53005B534D435F504D3C
:105AA000535441545D092D2043757272656E742004
:105AB000506F776572204D6F646520564C4C5300D3
:105AC0005B4C4C57555F534F555243455D092D2054
:105AD0004469676974616C2070696E2032005B4CA8
